:020000040800F2
:1000000000A000207D190008351700083D170008E2
:10001000451700084D17000855170008000000009C
:100020000000000000000000000000005D17000854
:100030006B170008000000007917000887170008F8
:10004000CD190008CD190008CD190008CD190008F8
:10005000CD190008CD190008CD190008A91700080E
:10006000CD190008CD190008CD190008CD190008D8
:10007000CD190008CD190008CD190008CD190008C8
:10008000CD190008CD190008CD190008CD190008B8
:1000900095170008CD190008CD190008CD190008E2
:1000A000CD190008CD190008CD190008CD19000898
:1000B000CD190008B9170008CD190008CD1900089E
:1000C000CD190008CD190008CD190008CD19000878
:1000D000CD190008CD190008CD190008CD19000868
:1000E000CD190008CD190008CD190008CD19000858
:1000F000CD190008CD190008CD190008CD19000848
:10010000000000000000000000000000CD19000801
:10011000CD190008CD190008CD190008CD19000827
:10012000CD190008CD190008CD190008CD19000817
:10013000CD190008CD1900080000000000000000E3
:10014000CD190008CD190008CD19000800000000E5
:10015000000000000000000000000000000000009F
:100160000000000000000000CD190008CD190008B3
:10017000CD19000800000000000000000000000091
:0801800000000000CD19000889
:1001900010B5054C237833B9044B13B10448AFF3C1
:1001A00000800123237010BD4403002000000000E4
:1001B000D8DF000808B5034B1BB103490348AFF370
:1001C000008008BD0000000048030020D8DF0008C0
:1001D00010F8012B11F8013B012A28BF9A42F7D0F1
:1001E000D01A70470000000000000000000000006E
:1001F00001F0FF01102A2BDB10F0070F08D010F8D8
:10020000013B013A8B422DD010F0070F42B3F6D1DB
:10021000F0B441EA012141EA014122F007047FF0F4
:1002200000070023F0E80256083C85EA010586EA4B
:10023000010685FA47F5A3FA87F586FA47F6A5FA87
:1002400087F68EB9EED1F0BC01F0FF0102F0070293
:1002500032B110F8013B013A83EA010313B1F8D13E
:100260000020704701387047002D06BF354603381F
:10027000073815F0010F07D1013015F4807F02BF58
:10028000013015F4C03F0130F0BC0138704700BFA9
:10029000034613F8012B002AFBD1181A01387047C6
:1002A00081F0004102E000BF83F0004330B54FEA27
:1002B00041044FEA430594EA050F08BF90EA020F94
:1002C0001FBF54EA000C55EA020C7FEA645C7FEA27
:1002D000655C00F0E2804FEA5454D4EB5555B8BF4A
:1002E0006D420CDD2C4480EA020281EA030382EABB
:1002F000000083EA010180EA020281EA0303362D4D
:1003000088BF30BD11F0004F4FEA01314FF4801C1F
:100310004CEA113102D0404261EB410113F0004F31
:100320004FEA03334CEA133302D0524263EB4303E8
:1003300094EA050F00F0A780A4F10104D5F1200E86
:100340000DDB02FA0EFC22FA05F2801841F10001E1
:1003500003FA0EF2801843FA05F359410EE0A5F1B5
:1003600020050EF1200E012A03FA0EFC28BF4CF0E6
:10037000020C43FA05F3C01851EBE37101F000459C
:1003800007D54FF0000EDCF1000C7EEB00006EEBA9
:100390000101B1F5801F1BD3B1F5001F0CD3490833
:1003A0005FEA30004FEA3C0C04F101044FEA44528A
:1003B00012F5800F80F09A80BCF1004F08BF5FEA11
:1003C000500C50F1000041EB045141EA050130BDF1
:1003D0005FEA4C0C404141EB0101013C28BFB1F503
:1003E000801FE9D291F0000F04BF01460020B1FA4E
:1003F00081F308BF2033A3F10B03B3F120020CDA21
:100400000C3208DD02F1140CC2F10C0201FA0CF0FE
:1004100021FA02F10CE002F11402D8BFC2F1200C63
:1004200001FA02F120FA0CFCDCBF41EA0C01904019
:10043000E41AA2BF01EB0451294330BD6FEA040462
:100440001F3C1CDA0C340EDC04F11404C4F120024D
:1004500020FA04F001FA02F340EA030021FA04F35F
:1004600045EA030130BDC4F10C04C4F1200220FAB6
:1004700002F001FA04F340EA0300294630BD21FAF4
:1004800004F0294630BD94F0000F83F4801306BFBA
:1004900081F480110134013D4EE77FEA645C18BFAE
:1004A0007FEA655C29D094EA050F08BF90EA020F45
:1004B00005D054EA000C04BF1946104630BD91EA3D
:1004C000030F1EBF0021002030BD5FEA545C05D140
:1004D0004000494128BF41F0004130BD14F580047F
:1004E0003CBF01F5801130BD01F0004545F0FE41F3
:1004F00041F470014FF0000030BD7FEA645C1ABF28
:10050000194610467FEA655C1CBF0B46024650EA5E
:10051000013406BF52EA033591EA030F41F400218A
:1005200030BD00BF90F0000F04BF0021704730B510
:100530004FF4806404F132044FF000054FF00001E5
:1005400050E700BF90F0000F04BF0021704730B5A6
:100550004FF4806404F1320410F0004548BF40427B
:100560004FF000013EE700BF42004FEAE2014FEAD0
:1005700031014FEA02701FBF12F07F4393F07F4FAB
:1005800081F06051704732F07F4208BF704793F0AE
:100590007F4F04BF41F40021704730B54FF46074C1
:1005A00001F0004521F000411CE700BF50EA0102C4
:1005B00008BF704730B54FF000050AE050EA01026D
:1005C00008BF704730B511F0004502D5404261EBDD
:1005D00041014FF4806404F132045FEA915C3FF41E
:1005E000D8AE4FF003025FEADC0C18BF03325FEABB
:1005F000DC0C18BF033202EBDC02C2F1200300FA6C
:1006000003FC20FA02F001FA03FE40EA0E0021FA90
:1006100002F11444BDE600BF70B54FF0FF0C4CF47E
:10062000E06C1CEA11541DBF1CEA135594EA0C0F30
:1006300095EA0C0F00F0DEF82C4481EA030621EA6B
:100640004C5123EA4C5350EA013518BF52EA0335A6
:1006500041F4801143F4801338D0A0FB02CE4FF058
:100660000005E1FB02E506F00042E0FB03E54FF088
:100670000006E1FB03569CF0000F18BF4EF0010E80
:10068000A4F1FF04B6F5007F64F5407404D25FEA7C
:100690004E0E6D4146EB060642EAC62141EA55512F
:1006A0004FEAC52040EA5E504FEACE2EB4F1FD0C71
:1006B00088BFBCF5E06F1ED8BEF1004F08BF5FEAEF
:1006C000500E50F1000041EB045170BD06F00046A1
:1006D00046EA010140EA020081EA0301B4EB5C044E
:1006E000C2BFD4EB0C0541EA045170BD41F4801146
:1006F0004FF0000E013C00F3AB8014F1360FDEBF6B
:10070000002001F0004170BDC4F10004203C35DA46
:100710000C341BDC04F11404C4F1200500FA05F3C9
:1007200020FA04F001FA05F240EA020001F000426A
:1007300021F0004110EBD37021FA04F642EB0601E0
:100740005EEA430E08BF20EAD37070BDC4F10C040A
:10075000C4F1200500FA04F320FA05F001FA04F2CE
:1007600040EA020001F0004110EBD37041F10001BA
:100770005EEA430E08BF20EAD37070BDC4F12005C5
:1007800000FA05F24EEA020E20FA04F301FA05F22D
:1007900043EA020321FA04F001F0004121FA04F2D5
:1007A00020EA020000EBD3705EEA430E08BF20EAA5
:1007B000D37070BD94F0000F0FD101F000464000DF
:1007C00041EB010111F4801F08BF013CF7D041EA61
:1007D000060195F0000F18BF704703F00046520065
:1007E00043EB030313F4801F08BF013DF7D043EA36
:1007F0000603704794EA0C0F0CEA135518BF95EAEC
:100800000C0F0CD050EA410618BF52EA4306D1D172
:1008100081EA030101F000414FF0000070BD50EA91
:10082000410606BF1046194652EA430619D094EA1B
:100830000C0F02D150EA013613D195EA0C0F05D105
:1008400052EA03361CBF104619460AD181EA030159
:1008500001F0004141F0FE4141F470014FF0000011
:1008600070BD41F0FE4141F4780170BD70B54FF0AC
:10087000FF0C4CF4E06C1CEA11541DBF1CEA13552C
:1008800094EA0C0F95EA0C0F00F0A7F8A4EB05040E
:1008900081EA030E52EA03354FEA013100F0888005
:1008A0004FEA03334FF0805545EA131343EA1263CE
:1008B0004FEA022245EA111545EA10654FEA002683
:1008C0000EF000419D4208BF964244F1FD0404F53C
:1008D000407402D25B084FEA3202B61A65EB030598
:1008E0005B084FEA32024FF480104FF4002CB6EB55
:1008F000020E75EB030E22BFB61A754640EA0C00D5
:100900005B084FEA3202B6EB020E75EB030E22BF14
:10091000B61A754640EA5C005B084FEA3202B6EB55
:10092000020E75EB030E22BFB61A754640EA9C0014
:100930005B084FEA3202B6EB020E75EB030E22BFE4
:10094000B61A754640EADC0055EA060E18D04FEAA2
:10095000051545EA16754FEA06164FEAC30343EA42
:1009600052734FEAC2025FEA1C1CC0D111F4801F0F
:100970000BD141EA00014FF000004FF0004CB6E708
:1009800011F4801F04BF01430020B4F1FD0C88BFA7
:10099000BCF5E06F3FF6AFAEB5EB030C04BFB6EBB2
:1009A000020C5FEA500C50F1000041EB045170BDA5
:1009B0000EF0004E4EEA113114EB5C04C2BFD4EBD2
:1009C0000C0541EA045170BD41F480114FF0000E56
:1009D000013C90E645EA060E8DE60CEA135594EAD2
:1009E0000C0F08BF95EA0C0F3FF43BAF94EA0C0FD5
:1009F0000AD150EA01347FF434AF95EA0C0F7FF44A
:100A000025AF104619462CE795EA0C0F06D152EA9D
:100A100003353FF4FDAE1046194622E750EA410681
:100A200018BF52EA43067FF4C5AE50EA41047FF492
:100A30000DAF52EA43057FF4EBAE12E74FF0FF3CF7
:100A400006E000BF4FF0010C02E000BF4FF0010CC8
:100A50004DF804CD4FEA410C7FEA6C5C4FEA430C41
:100A600018BF7FEA6C5C1BD001B050EA410C0CBF90
:100A700052EA430C91EA030F02BF90EA020F0020F2
:100A8000704710F1000F91EA030F58BF994208BF59
:100A900090422CBFD8176FEAE37040F00100704716
:100AA0004FEA410C7FEA6C5C02D150EA013C07D16D
:100AB0004FEA430C7FEA6C5CD6D152EA033CD3D0B8
:100AC0005DF8040B704700BF8446104662468C46B2
:100AD0001946634600E000BF01B5FFF7B7FF0028E5
:100AE00048BF10F1000F01BD4DF808EDFFF7F4FF0E
:100AF0000CBF012000205DF808FB00BF4DF808ED99
:100B0000FFF7EAFF34BF012000205DF808FB00BFBB
:100B10004DF808EDFFF7E0FF94BF012000205DF8DD
:100B200008FB00BF4DF808EDFFF7CEFF94BF012092
:100B300000205DF808FB00BF4DF808EDFFF7C4FF8B
:100B400034BF012000205DF808FB00BF4FEA410CD4
:100B50007FEA6C5C02D150EA013C0AD14FEA430CB7
:100B60007FEA6C5C02D152EA033C02D14FF00000F4
:100B700070474FF0010070474FEA410212F5001232
:100B800015D211D56FF47873B3EB625212D94FEAD4
:100B9000C12343F0004343EA505311F0004F23FABE
:100BA00002F018BF404270474FF00000704750EA13
:100BB000013005D111F0004008BF6FF000407047D0
:100BC0004FF00000704700BF80B500AF114B01220D
:100BD0001A70114B00221A70104B00221A60104B31
:100BE00000221A600F4B00221A600F4B00221A607D
:100BF0000E4B00221A6001224FF480410C4801F094
:100C0000D9F90C4B1B6800225A620A4805F024FBF4
:100C100000BF80BD6C0400206D0400207004002023
:100C200074040020780400207C040020800400204C
:100C3000001000481804002080B582B000AF786032
:100C40007B681B68124A93421ED1124B1B78DBB2A1
:100C5000002B19D0104B1B6801330F4A13600E4B49
:100C60001B6840F6643293420ED90A4B00221A7078
:100C70000A4B01221A700A4805F058FB00224FF473
:100C80008041084801F096F900BF0837BD4680BD95
:100C9000000400406C040020700400206D0400205B
:100CA000180400200010004880B483B000AF002377
:100CB0007B6000237B6003E000BF7B6801337B60C7
:100CC0007B68B3F5167FF7D300BF00BF0C37BD4676
:100CD0005DF8047B7047000080B586B002AF034624
:100CE000FB71FB7963F07F03FB71FB799BB2FB81A6
:100CF00000220821154801F05DF9FFF7D5FF07F143
:100D00000C0207F10E01022300930123104804F0A6
:100D10006CFEFFF7C9FF07F10E01013107F10C026C
:100D20000132022300930123094804F05EFE0122F0
:100D30000821064801F03EF9FFF7B6FFBB891B0A00
:100D40009BB2DBB218461037BD4680BD001000488C
:100D5000B403002080B584B000AF03460A46FB719F
:100D60001346BB71FB791AB2BB791BB21B021BB2D3
:100D700013431BB29BB2FB8100220821104801F0F3
:100D800019F9FFF791FF07F10E01022301220D4827
:100D900004F07FFBFFF788FF07F10E01013102230A
:100DA0000122084804F075FB01220821044801F0E3
:100DB00001F9FFF779FF00BF1037BD4680BD00BFC6
:100DC00000100048B403002080B582B000AF034695
:100DD0003960FB711346BB71FB7963F03F03DBB2F3
:100DE000FB71002208210F4801F0E4F8FFF75CFFD7
:100DF000F91D0A2301220C4804F04BFBFFF754FFB6
:100E0000BB799AB2BB793968074804F0B7FC012274
:100E10000821044801F0CEF8FFF746FF00BF08376D
:100E2000BD4680BD00100048B403002080B582B0EC
:100E300000AF0F20FFF750FF0346FB71FB79D42B67
:100E400004D0FB79D32B01D000BFFDE74F21202038
:100E5000FFF780FF08212220FFF77CFF10212320CD
:100E6000FFF778FF00BF0837BD4680BD80B483B070
:100E700000AF0346FB80FB88022B02D1044B01220A
:100E80001A7000BF0C37BD465DF8047B704700BF89
:100E9000640400202DE9F043B1B006AF00F098FDE6
:100EA00000F0A2F900F0D4FA00F0FEF900F03CFAEC
:100EB00009F020FD00F076FAB44B1B681A68B34BBA
:100EC0001B6842F040021A6001220821B04801F07C
:100ED00071F8FFF7ABFFFFF777FEAE4BC7F8A03016
:100EE000AD4BC7F89C3097ED277AD7ED287A37EECF
:100EF000277AD7ED286AC6EE877AA84BC3ED007A29
:100F0000002387F8A730A64B01221A70A54B1B7847
:100F1000DBB2002BFAD0A24B1B78DBB2002BF5D052
:100F2000A04B00221A7007F18403062219462820DC
:100F3000FFF74AFF9C4B1B78DBB2002B1DD0B7F9A3
:100F400084301A46994B1B681344984A1360B7F9CA
:100F500086301A46964B1B681344954A1360B7F9BE
:100F600088301A46934B1B681344924A1360924B85
:100F70001B680133904A1360C8E7904B1B78DBB2C3
:100F8000002B3DD097F8A730002B39D18A4B1B6836
:100F9000002B35D0854B1B6807EE903AF8EEE76AD8
:100FA000854B1B6807EE903AB8EE677AC6EE877AF3
:100FB000834BC3ED007A7E4B1B6807EE903AF8EE48
:100FC000E76A7D4B1B6807EE903AB8EE677AC6EE8B
:100FD000877A7C4BC3ED007A764B1B6807EE903A1C
:100FE000F8EEE76A744B1B6807EE903AB8EE677A42
:100FF000C6EE877A744BC3ED007A012387F8A730D9
:1010000097F8A730002B81D0B7F9843007EE903ADB
:10101000B8EEE77A6A4BD3ED007A77EE677A9FED08
:101020006B7A67EE877AC7ED267AB7F9863007EED6
:10103000903AB8EEE77A634BD3ED007A77EE677AB1
:101040009FED627A67EE877AC7ED257AB7F9883027
:1010500007EE903AB8EEE77A5B4BD3ED007A77EE85
:10106000677A9FED5A7A67EE877AC7ED247A584BF4
:101070001B78002B0FD1574AD7F898301360564A87
:10108000D7F894301360554AD7F890301360504B1E
:1010900001221A703BE04F4BD3ED007A97ED267A90
:1010A00037EE677A3D4BD3ED007A27EE277A494B2E
:1010B000D3ED007A77EE277A464BC3ED007A464BA4
:1010C000D3ED007A97ED257A37EE677A334BD3ED7F
:1010D000007A27EE277A404BD3ED007A77EE277A15
:1010E0003D4BC3ED007A3D4BD3ED007A97ED247A6A
:1010F00037EE677A294BD3ED007A27EE277A374B04
:10110000D3ED007A77EE277A344BC3ED007A344B77
:101110001E68731C324A13602E4B1B681846FFF77B
:1011200023FA04460D462C4B1B681846FFF71CFAA1
:1011300080468946294B1B681846FFF715FA024678
:101140000B46381DCDE90423CDE90289CDE90045E0
:101150003346244A80210AF0F7FDC7F88C00D7F8FF
:101160008C30002B0BDD00BFD7F88C309AB23B1DC2
:101170001146184609F0C6FC0346012BF4D04FF483
:101180000071034800F02EFFC0E600BFB40300204A
:10119000001000489276AC3B3761023CA00400206E
:1011A00074070020640400206C04002074040020F4
:1011B000780400207C040020800400206D040020BE
:1011C00084040020880400208C040020295C8F3CCB
:1011D0009C04002090040020940400209804002027
:1011E00068040020F0DF000880B59EB000AF07F172
:1011F00050032822002118460AF01FFE07F13C0385
:1012000000221A605A609A60DA601A613B463C22FA
:10121000002118460AF011FE03233B654FF4A0237A
:101220007B650023BB6501233B6610237B6602239D
:10123000FB664FF480333B674FF4E0137B6707F1A5
:101240005003184602F0FCFC0346002B01D000F0CE
:10125000A1F90F23FB6302233B6400237B644FF45B
:101260008063BB640023FB6407F13C030221184642
:1012700003F0F4FC0346002B01D000F08BF9094B7E
:101280003B600023FB610023BB633B46184603F031
:10129000A7FE0346002B01D000F07CF900BF783791
:1012A000BD4680BD2000020080B500AF1B4B1C4A2C
:1012B0001A601A4B1B4A5A60184B00229A60174B4F
:1012C0000122DA60154B00221A61144B00225A6188
:1012D000124B00229A61114B0022DA610F4B00225F
:1012E0001A620E4800F0B0FE0346002B01D000F059
:1012F00051F90021094800F042FF0346002B01D0BC
:1013000000F048F90021054800F084FF0346002B57
:1013100001D000F03FF900BF80BD00BF6003002096
:10132000005400402B1D200080B500AF1B4B1C4A11
:101330001A601A4B4FF482725A60184B00229A605E
:10134000164B4FF4E062DA60144B02221A61134B21
:1013500001225A61114B4FF400729A610F4B102217
:10136000DA610E4B00221A620C4B00225A620B4BC0
:1013700000229A62094B0722DA62084B00221A63A4
:10138000064B00225A63054803F0D8FF0346002BA2
:1013900001D000F0FFF800BF80BD00BFB403002003
:1013A0000030014080B588B000AF07F11003002283
:1013B0001A605A609A60DA603B1D00221A605A6017
:1013C0009A60214B214A1A601F4B40F257225A6003
:1013D0001D4B00229A601C4B7722DA601A4B0022C8
:1013E0001A61194B00229A61174804F0DDFE03468A
:1013F000002B01D000F0CEF84FF480533B6107F191
:1014000010031946104805F0C2F80346002B01D01E
:1014100000F0C0F800237B600023FB603B1D1946F1
:10142000094805F0DBFA0346002B01D000F0B2F8C2
:10143000002201211D2000F00CFC1D2000F025FCE5
:1014400000BF2037BD4680BD1804002000040040C6
:1014500080B58AB000AF07F1140300221A605A6009
:101460009A60DA601A61494B5B69484A43F4001399
:101470005361464B5B6903F400133B613B69434B8B
:101480005B69424A43F400235361404B5B6903F4B8
:101490000023FB60FB683D4B5B693C4A43F48003DF
:1014A00053613A4B5B6903F48003BB60BB68374B05
:1014B0005B69364A43F400335361344B5B6903F490
:1014C00000337B607B68314B5B69304A43F4802397
:1014D00053612E4B5B6903F480233B603B68002221
:1014E0004FF608712A4800F065FD35237B614FF403
:1014F0009013BB610023FB6107F1140319462448D4
:1015000000F0DEFB02237B614FF48813BB610023F4
:10151000FB6107F1140319461D4800F0D1FB0823B5
:101520007B610123BB610023FB6103233B6207F165
:1015300014031946164800F0C3FB01237B61002306
:10154000BB610023FB6107F1140319464FF0904083
:1015500000F0B6FB4FF47F437B610123BB610023A6
:10156000FB6100233B6207F114031946084800F0B1
:10157000A7FB00220021072000F06BFB072000F0F2
:1015800084FB00BF2837BD4680BD00BF001002406D
:101590000010004880B400AF72B600BF00BFFDE786
:1015A00080B582B000AF0F4B9B690E4A43F0010338
:1015B00093610C4B9B6903F001037B607B68094BD3
:1015C000DB69084A43F08053D361064BDB6903F0C3
:1015D00080533B603B68072000F030FB00BF0837BA
:1015E000BD4680BD0010024080B58AB000AF786073
:1015F00007F1140300221A605A609A60DA601A61D7
:101600007B681B68174A934227D1174B5B69164AC0
:1016100043F480235361144B5B6903F480233B61E3
:101620003B69C0237B611223BB610123FB61032360
:101630003B6204237B6207F1140319460B4800F058
:101640003FFB094BDB69084A43F40013D361064BA7
:10165000DB6903F40013FB60FB6800BF2837BD465D
:1016600080BD00BF0054004000100240000400484C
:1016700080B58AB000AF786007F1140300221A60C9
:101680005A609A60DA601A617B681B68174A934255
:1016900028D1174B9B69164A43F480539361144B2E
:1016A0009B6903F480533B613B69114B5B69104AB2
:1016B00043F4003353610E4B5B6903F40033FB606A
:1016C000FB68E0237B610223BB610023FB610323F2
:1016D0003B6205237B6207F1140319464FF09040EB
:1016E00000F0EEFA00BF2837BD4680BD0030014053
:1016F0000010024080B485B000AF78607B681B6842
:101700000A4A93420BD10A4BDB69094A43F00203B0
:10171000D361074BDB6903F00203FB60FB6800BF8A
:101720001437BD465DF8047B704700BF00040040DD
:101730000010024080B400AF00BFFDE780B400AFEE
:1017400000BFFDE780B400AF00BFFDE780B400AF8D
:1017500000BFFDE780B400AF00BFFDE780B400AF7D
:1017600000BFBD465DF8047B704780B400AF00BF8A
:10177000BD465DF8047B704780B400AF00BFBD4636
:101780005DF8047B704780B500AF00F067F900BFDB
:1017900080BD000080B500AF024800F074FE00BFBD
:1017A00080BD00BF7811002080B500AF022000F09E
:1017B00033FC00BF80BD000080B500AF024804F0DC
:1017C000E4FD00BF80BD00BF1804002080B400AF5E
:1017D00001231846BD465DF8047B704780B582B092
:1017E00000AF786039600AF07BFB034616221A606E
:1017F0004FF0FF3318460837BD4680BD80B582B034
:1018000000AF78604FF0FF317868FFF7E7FF00BF67
:10181000FDE780B586B000AFF860B9607A6000235C
:101820007B610AE0AFF300800146BB685A1CBA60D6
:10183000CAB21A707B6901337B617A697B689A420C
:10184000F0DB7B6818461837BD4680BD80B586B092
:1018500000AFF860B9607A6000237B6109E0BB6883
:101860005A1CBA601B781846AFF300807B690133BD
:101870007B617A697B689A42F1DB7B68184618378E
:10188000BD4680BD80B483B000AF78604FF0FF33B9
:1018900018460C37BD465DF8047B704780B483B0B2
:1018A00000AF786039603B684FF400525A60002303
:1018B00018460C37BD465DF8047B704780B483B092
:1018C00000AF7860012318460C37BD465DF8047BF5
:1018D000704780B485B000AFF860B9607A600023CB
:1018E00018461437BD465DF8047B704780B586B056
:1018F00000AF7860144A154BD31A7B617B693B615A
:10190000134B1B68002B02D1114B124A1A60104B6B
:101910001A687B6813443A699A4207D20AF0E0FADF
:1019200003460C221A604FF0FF3309E0084B1B6896
:10193000FB60074B1A687B681344054A1360FB6819
:1019400018461837BD4680BD00A0002000040000E6
:10195000A4040020B817002080B400AF064BD3F8D1
:101960008830054A43F47003C2F8883000BFBD4692
:101970005DF8047B704700BF00ED00E0DFF834D075
:10198000FFF7EAFF0C480D490D4A002302E0D45846
:10199000C4500433C4188C42F9D30A4A0A4C0023B9
:1019A00001E013600432A242FBD30AF09FFAFFF772
:1019B00071FAFEE700A00020000000204403002090
:1019C0002CE4000844030020B8170020FEE70000C4
:1019D00080B500AF084B1B68074A43F01003136043
:1019E000032000F02BF9002000F008F8FFF7D8FDE5
:1019F0000023184680BD00BF0020024080B582B0A1
:101A000000AF7860124B1A68124B1B7819464FF4DE
:101A10007A73B3FBF1F3B2FBF3F3184600F043F92A
:101A20000346002B01D001230EE07B680F2B0AD860
:101A3000002279684FF0FF3000F00BF9064A7B680E
:101A40001360002300E0012318460837BD4680BD1F
:101A500000000020080000200400002080B400AF37
:101A6000064B1B781A46064B1B681344044A136046
:101A700000BFBD465DF8047B704700BF0800002032
:101A8000A804002080B400AF034B1B681846BD4675
:101A90005DF8047B704700BFA804002080B485B0C7
:101AA00000AF78607B6803F00703FB600C4BDB68DA
:101AB000BB60BA684FF6FF031340BB60FB681A02B5
:101AC000BB68134343F0BF6343F40033BB60044A75
:101AD000BB68D36000BF1437BD465DF8047B704718
:101AE00000ED00E080B400AF044BDB681B0A03F09C
:101AF00007031846BD465DF8047B704700ED00E023
:101B000080B483B000AF0346FB7197F90730002B18
:101B10000BDBFB7903F01F02074997F907305B09DC
:101B2000012000FA02F241F8232000BF0C37BD4625
:101B30005DF8047B704700BF00E100E080B483B033
:101B400000AF03463960FB7197F90730002B0ADBC1
:101B50003B68DAB20C4997F907301201D2B20B4454
:101B600083F800230AE03B68DAB20849FB7903F006
:101B70000F03043B1201D2B20B441A7600BF0C379C
:101B8000BD465DF8047B704700E100E000ED00E039
:101B900080B489B000AFF860B9607A60FB6803F088
:101BA0000703FB61FB69C3F10703042B28BF042370
:101BB000BB61FB690433062B02D9FB69033B00E0E0
:101BC00000237B614FF0FF32BB6902FA03F3DA4373
:101BD000BB681A407B699A404FF0FF317B6901FA7C
:101BE00003F3D9437B680B40134318462437BD46A3
:101BF0005DF8047B7047000080B582B000AF78606C
:101C00007B68013BB3F1807F01D301230FE00A4AD7
:101C10007B68013B53600F214FF0FF30FFF78EFFD1
:101C2000054B00229A60044B07221A6000231846D5
:101C30000837BD4680BD00BF10E000E080B582B02F
:101C400000AF78607868FFF729FF00BF0837BD460E
:101C500080BD80B586B000AF0346B9607A60FB7383
:101C600000237B61FFF73EFF78617A68B968786985
:101C7000FFF78EFF024697F90F3011461846FFF71F
:101C80005DFF00BF1837BD4680BD80B582B000AF94
:101C90000346FB7197F907301846FFF731FF00BF85
:101CA0000837BD4680BD80B582B000AF78607868E7
:101CB000FFF7A2FF034618460837BD4680BD000067
:101CC00080B487B000AF7860396000237B6154E155
:101CD0003B681A6801217B6901FA03F31340FB603A
:101CE000FB68002B00F046813B685B6803F0030350
:101CF000012B05D03B685B6803F00303022B30D156
:101D00007B689B683B617B695B00032202FA03F3FB
:101D1000DB433A6913403B613B68DA687B695B00EF
:101D200002FA03F33A6913433B617B683A699A60AC
:101D30007B685B683B6101227B6902FA03F3DB434A
:101D40003A6913403B613B685B681B0903F0010281
:101D50007B6902FA03F33A6913433B617B683A6992
:101D60005A603B685B6803F00303032B17D07B6862
:101D7000DB683B617B695B00032202FA03F3DB4310
:101D80003A6913403B613B689A687B695B0002FAE1
:101D900003F33A6913433B617B683A69DA603B6855
:101DA0005B6803F00303022B23D17B69DA087B68AD
:101DB000083253F822303B617B6903F007039B0034
:101DC0000F2202FA03F3DB433A6913403B613B689D
:101DD0001A697B6903F007039B0002FA03F33A696F
:101DE00013433B617B69DA087B680832396943F841
:101DF00022107B681B683B617B695B00032202FA4F
:101E000003F3DB433A6913403B613B685B6803F0D3
:101E100003027B695B0002FA03F33A6913433B61F7
:101E20007B683A691A603B685B6803F44033002BB7
:101E300000F0A080584B9B69574A43F0010393611F
:101E4000554B9B6903F00103BB60BB68534A7B6938
:101E50009B08023352F823303B617B6903F0030394
:101E60009B000F2202FA03F3DB433A6913403B6104
:101E70007B68B3F1904F19D07B68494A934213D0E5
:101E80007B68484A93420DD07B68474A934207D00B
:101E90007B68464A934201D1042308E0052306E00B
:101EA000032304E0022302E0012300E000237A6917
:101EB00002F00302920093403A6913433B613749B1
:101EC0007B699B0802333A6941F82320384B9B68B1
:101ED0003B61FB68DB433A6913403B613B685B68ED
:101EE00003F48013002B03D03A69FB6813433B6172
:101EF0002F4A3B6993602E4BDB683B61FB68DB43F9
:101F00003A6913403B613B685B6803F40013002BA4
:101F100003D03A69FB6813433B61254A3B69D360B0
:101F2000234B5B683B61FB68DB433A6913403B61D1
:101F30003B685B6803F40033002B03D03A69FB680D
:101F400013433B611A4A3B695360194B1B683B6161
:101F5000FB68DB433A6913403B613B685B6803F411
:101F60008033002B03D03A69FB6813433B61104A6E
:101F70003B6913607B6901337B613B681A687B694D
:101F800022FA03F3002B7FF4A3AE00BF00BF1C377F
:101F9000BD465DF8047B7047001002400000014020
:101FA0000004004800080048000C004800100048E9
:101FB0000004014080B483B000AF78600B467B80A2
:101FC00013467B707B78002B03D07A887B689A61FC
:101FD00002E07A887B689A6200BF0C37BD465DF8E4
:101FE000047B704780B485B000AF78600B467B807F
:101FF0007B685B69FB607A88FB6813401A04FB68A6
:10200000D9437B880B401A437B689A6100BF143721
:10201000BD465DF8047B704780B582B000AF0346D3
:10202000FB80084B5A69FB881340002B06D0054AF9
:10203000FB885361FB881846FEF718FF00BF08377E
:10204000BD4680BD0004014080B582B000AF78601D
:102050007B68002B01D101238DE07B6893F8413030
:10206000DBB2002B06D17B68002283F84020786821
:10207000FFF7BAFA7B68242283F841207B681B684B
:102080001A687B681B6822F001021A607B685A6834
:102090007B681B6822F070621A617B681B689A6813
:1020A0007B681B6822F400429A607B68DB68012B26
:1020B00007D17B689A687B681B6842F400429A608B
:1020C00006E07B689A687B681B6842F404429A6069
:1020D0007B68DB68022B08D17B681B685A687B68C9
:1020E0001B6842F400625A6007E07B681B685A680C
:1020F0007B681B6822F400625A607B681B685B681F
:102100007A68126843F0007343F4004353607B68BD
:102110001B68DA687B681B6822F40042DA607B681F
:102120001A697B685B6942EA03017B689B691A0252
:102130007B681B680A43DA607B68D9697B681A6A26
:102140007B681B680A431A607B681B681A687B6897
:102150001B6842F001021A607B6800225A647B68A7
:10216000202283F841207B6800221A637B680022CA
:1021700083F84220002318460837BD4680BD80B44E
:1021800083B000AF786039607B6893F84130DBB290
:10219000202B38D17B6893F84030012B01D10223EA
:1021A00032E07B68012283F840207B68242283F898
:1021B00041207B681B681A687B681B6822F001025B
:1021C0001A607B681B681A687B681B6822F480525F
:1021D0001A607B681B6819687B681B683A680A4349
:1021E0001A607B681B681A687B681B6842F00102F2
:1021F0001A607B68202283F841207B68002283F8E4
:102200004020002300E0022318460C37BD465DF84D
:10221000047B704780B485B000AF786039607B681C
:1022200093F84130DBB2202B39D17B6893F84030F2
:10223000012B01D1022333E07B68012283F8402087
:102240007B68242283F841207B681B681A687B68BE
:102250001B6822F001021A607B681B681B68FB6028
:10226000FB6823F47063FB603B681B02FA6813434E
:10227000FB607B681B68FA681A607B681B681A68D9
:102280007B681B6842F001021A607B68202283F899
:1022900041207B68002283F84020002300E00223D5
:1022A00018461437BD465DF8047B704780B584B08E
:1022B00000AF78607B68002B01D10123B9E07B6817
:1022C00093F89132DBB2002B06D17B68002283F8B1
:1022D0009022786808F04CFD7B68032283F89122F5
:1022E0007B681B68184604F02EFC0023FB733EE05D
:1022F000FA7B796813469B001344DB000B441133CF
:1023000001221A70FA7B796813469B001344DB00A4
:102310000B441033FA7B1A70FA7B796813469B00E2
:102320001344DB000B44133300221A70FA7B7968E4
:1023300013469B001344DB000B44203300221A6039
:10234000FA7B796813469B001344DB000B4424336B
:1023500000221A60FB7B79685A1C13469B001344C9
:10236000DB000B4400221A60FB7B0133FB737B68AC
:102370001B79FA7B9A42BBD30023FB7344E0FA7BC0
:10238000796813469B001344DB000B4403F251139E
:1023900000221A70FA7B796813469B001344DB0015
:1023A0000B4403F5A873FA7B1A70FA7B796813461D
:1023B0009B001344DB000B4403F2531300221A70FA
:1023C000FA7B796813469B001344DB000B4403F54A
:1023D000B07300221A60FA7B796813469B0013449D
:1023E000DB000B4403F5B27300221A60FA7B7968B4
:1023F00013469B001344DB000B4403F5B473002227
:102400001A60FB7B0133FB737B681B79FA7B9A4272
:10241000B5D37B6818687B68043393E8060004F042
:10242000ADFB7B6800221A737B68012283F891223E
:10243000002318461037BD4680BD80B582B000AF7E
:1024400078607B6893F89032012B01D1022316E06B
:102450007B68012283F890227B681B68184604F091
:102460005BFB0121786808F01FFF7B681B6818463A
:1024700006F018FE7B68002283F89022002318469D
:102480000837BD4680BD80B584B000AF78607B68FA
:102490001B68184606F011FEF860FB6803F4004361
:1024A000002B03D0786800F0B1FABDE0FB6803F4BC
:1024B0008063002B13D07B681B68B3F844309AB25A
:1024C0007B681B6822F4806292B2A3F8442078688B
:1024D00008F0EFFC0021786800F0A9F8A4E0FB68A0
:1024E00003F48043002B0CD07B681B68B3F84430A6
:1024F0009AB27B681B6822F4804292B2A3F844200F
:1025000092E0FB6803F40053002B0CD07B681B683F
:10251000B3F844309AB27B681B6822F4005292B23E
:10252000A3F8442080E0FB6803F48053002B27D0FD
:102530007B681B68B3F840309AB27B681B6822F056
:10254000040292B2A3F840207B681B68B3F84030C5
:102550009AB27B681B6822F0080292B2A3F840206E
:10256000786808F0DFFC7B681B68B3F844309AB2E7
:102570007B681B6822F4805292B2A3F8442053E097
:10258000FB6803F40063002B27D07B681B68B3F85B
:1025900040309AB27B681B6842F0080292B2A3F8FE
:1025A00040207B681B68B3F844309AB27B681B6894
:1025B00022F4006292B2A3F844207B681B68B3F84F
:1025C00040309AB27B681B6842F0040292B2A3F8D2
:1025D0004020786808F08CFC26E0FB6803F4007368
:1025E000002B0FD07B681B68B3F844309AB27B682D
:1025F0001B6822F4007292B2A3F84420786808F0B5
:102600004AFC11E0FB6803F48073002B0CD07B685C
:102610001B68B3F844309AB27B681B6822F480725E
:1026200092B2A3F8442000BF1037BD4680BD80B5EC
:1026300082B000AF78600B46FB707B6893F89032F5
:10264000012B01D1022312E07B68012283F8902242
:102650007B68FA781A737B681B68FA78114618460B
:1026600006F00CFD7B68002283F8902200231846B8
:102670000837BD4680BD80B584B000AF786008469D
:1026800011461A460346FB700B463B801346BB704F
:102690000023FB7297F90330002B0EDAFB7803F06E
:1026A000070213469B001344DB0010337A6813447F
:1026B000FB60FB6801225A700EE0FB7803F0070212
:1026C00013469B001344DB0003F5A8737A68134498
:1026D000FB60FB6800225A70FB7803F00703DAB254
:1026E000FB681A703A88FB681A61FB68BA78DA707E
:1026F000BB78022B02D1FB6800221A717B6893F829
:102700009032012B01D102230EE07B68012283F875
:1027100090227B681B68F968184604F04DFA7B68C4
:10272000002283F89022FB7A18461037BD4680BD00
:1027300080B584B000AF78600B46FB7097F903302A
:10274000002B0EDAFB7803F0070213469B001344BC
:10275000DB0010337A681344FB60FB6801225A7077
:102760000EE0FB7803F0070213469B001344DB00E6
:1027700003F5A8737A681344FB60FB6800225A7063
:10278000FB7803F00703DAB2FB681A707B6893F8F2
:102790009032012B01D102230EE07B68012283F8E5
:1027A00090227B681B68F968184604F0C9FD7B68B5
:1027B000002283F89022002318461037BD4680BDC2
:1027C00080B586B000AFF8607A603B600B46FB7264
:1027D000FB7A03F0070213469B001344DB0003F56A
:1027E000A873FA6813447B617B697A685A617B69D4
:1027F0003A689A617B690022DA617B6900225A702B
:10280000FB7A03F00703DAB27B691A70FB681B6876
:102810007969184604F081FF002318461837BD4631
:1028200080BD80B483B000AF78600B46FB70FB784E
:1028300003F00702796813469B001344DB000B4446
:1028400003F5B6731B6818460C37BD465DF8047B6C
:10285000704780B586B000AFF8607A603B600B4689
:10286000FB72FB7A03F0070213469B001344DB0064
:102870001033FA6813447B617B697A685A617B691B
:102880003A689A617B69012283F824207B693A685F
:102890001A627B690022DA617B6901225A70FB7A35
:1028A00003F00703DAB27B691A70FB681B68796969
:1028B000184604F032FF002318461837BD4680BD85
:1028C00080B584B000AF78600B46FB70FB7803F0F6
:1028D00007037A681279934201D901233EE097F900
:1028E0000330002B0EDAFB7803F0070213469B003F
:1028F0001344DB0010337A681344FB60FB68012249
:102900005A700CE0FA7813469B001344DB0003F581
:10291000A8737A681344FB60FB6800225A70FB6856
:1029200001229A70FB7803F00703DAB2FB681A7091
:102930007B6893F89032012B01D102230EE07B6873
:10294000012283F890227B681B68F968184606F01C
:1029500096FA7B68002283F89022002318461037ED
:10296000BD4680BD80B584B000AF78600B46FB707B
:10297000FB7803F00F037A681279934201D901239F
:1029800040E097F90330002B0EDAFB7803F00702E2
:1029900013469B001344DB0010337A681344FB603A
:1029A000FB6801225A700EE0FB7803F00702134621
:1029B0009B001344DB0003F5A8737A681344FB60A3
:1029C000FB6800225A70FB6800229A70FB7803F0C3
:1029D0000703DAB2FB681A707B6893F89032012B18
:1029E00001D102230EE07B68012283F890227B68EC
:1029F0001B68F968184606F093FA7B68002283F892
:102A00009022002318461037BD4680BD80B596B091
:102A100000AF7860BBE37B681B68B3F84430A7F86D
:102A20004830B7F84830DBB203F00F0387F84F3077
:102A300097F84F30002B40F07581B7F8483003F01D
:102A40001003002B4ED17B681B681B889BB223F4BC
:102A5000E14323F07003FB817B681A68FB896FEA0E
:102A600043436FEA53439BB213807B6810337B650B
:102A70007B681B68B3F850309BB21A467B6D1B789D
:102A8000DB00134402335B007A681268134403F5D9
:102A900080631B88C3F309027B6DDA617B6D5A6921
:102AA0007B6DDB691A447B6D5A610021786808F000
:102AB000D8F97B681B7BDBB2002B00F068837B6D51
:102AC0009B69002B40F063837B681B7BDBB263F068
:102AD0007F03DAB27B681B68A3F84C207B68002276
:102AE0001A7354E37B6803F5A8737B657B681B68E6
:102AF0001B88A7F84C30B7F84C3003F40063002B68
:102B000034D07B681B68B3F850309BB21A467B6D9B
:102B10001B78DB00134406335B007A6812681344A9
:102B200003F580631B88C3F309027B6DDA617B6860
:102B300018687B6803F526717B6DDA887B6DDB692D
:102B40009BB206F011FB7B681B681B889AB240F6AB
:102B50008F7313403B827B681B683A8A42F0800285
:102B600092B21A80786808F04FF910E3B7F94C3048
:102B7000002B80F20C837B681B681B889AB240F69E
:102B80008F731340FB837B681B68FA8B42F08002D3
:102B900092B21A807B681B68B3F850309BB21A4619
:102BA0007B6D1B78DB00134406335B007A68126888
:102BB000134403F580631B88C3F309027B6DDA615C
:102BC0007B6DDB69002B19D07B6D5B69002B15D009
:102BD0007B6818687B6D59697B6DDA887B6DDB6972
:102BE0009BB206F0C1FA7B6D5A697B6DDB691A44B2
:102BF0007B6D5A610021786808F018F97B681B68C2
:102C00001B88A7F84C30B7F84C3003F40063002B56
:102C100040F0BD82B7F84C3003F44053B3F5405F49
:102C200000F0B5827B681B68BB617B681B68B3F8EA
:102C300050309BB21A46BB691344BB61BB6903F2B7
:102C40000C437B617B691B889BB2C3F309039AB277
:102C50007B691A807B6D1B69002B0AD17B691B88FD
:102C60009BB26FEA43436FEA53439AB27B691A807F
:102C700039E07B6D1B693E2B18D87B6D1B695B08A7
:102C80007B647B6D1B6903F00103002B02D07B6C1E
:102C900001337B647B691B889AB27B6C9BB29B027D
:102CA0009BB213439AB27B691A801CE07B6D1B694F
:102CB0005B097B647B6D1B6903F01F03002B02D152
:102CC0007B6C013B7B647B691B889AB27B6C9BB2FB
:102CD0009B029BB213439BB26FEA43436FEA534399
:102CE0009AB27B691A807B681B681B889BB223F4AD
:102CF000804323F070037B827B8A83F480537B8242
:102D00007B8A83F400537B827B681A687B8A43F05A
:102D10007F4343F47F0343F4004343F080039BB2BB
:102D2000138034E27B681B681A4697F84F309B008B
:102D300013441B88A7F84C30B7F94C30002B80F2B5
:102D4000FC807B681B681A4697F84F309B00134441
:102D50001B889AB240F68F731340A7F84A307B68FD
:102D60001B681A4697F84F309B001344B7F84A2067
:102D700042F0800292B21A8097F84F2013469B00CF
:102D80001344DB0003F5A8737A6813447B657B6DFD
:102D90001B7B002B25D17B681B68B3F850309BB29E
:102DA0001A467B6D1B78DB00134406335B007A68A0
:102DB0001268134403F580631B88C3F30903A7F863
:102DC0005030B7F85030002B00F092807B681868C4
:102DD0007B6D59697B6DDA88B7F8503006F0C4F91D
:102DE00086E07B6DDB78022B0AD1B7F84C301A46AF
:102DF000796D786800F0D9F90346A7F8503077E08C
:102E00007B681B681A467B6D1B789B0013441B88EC
:102E10009BB223F4E04323F07003A7F852307B68A1
:102E20001B681A467B6D1B789B001A44B7F852301A
:102E300043F07F4343F47F0343F4004343F0C00374
:102E40009BB213807B681B681A467B6D1B789B00C6
:102E500013441B889BB203F48043002B24D07B686F
:102E60001B68B3F850309BB21A467B6D1B78DB00B1
:102E7000134402335B007A681268134403F58063DD
:102E80001B88C3F30903A7F85030B7F85030002B64
:102E90002ED07B6818687B6D59697B6D1A89B7F8ED
:102EA000503006F061F923E07B681B68B3F85030BE
:102EB0009BB21A467B6D1B78DB00134406335B0024
:102EC0007A681268134403F580631B88C3F309030F
:102ED000A7F85030B7F85030002B09D07B6818683D
:102EE0007B6D59697B6D5A89B7F8503006F03CF913
:102EF0007B6DDA69B7F850301A447B6DDA617B6D0F
:102F00005A69B7F850301A447B6D5A617B6D9B69E2
:102F1000002B05D0B7F850207B6D1B699A4206D272
:102F20007B6D1B781946786807F080FF05E07B68A9
:102F30001B68796D184604F0F0FBB7F84C3003F0CD
:102F40008003002B00F0238197F84F2013469B004D
:102F50001344DB0010337A6813447B657B681B687D
:102F60001A4697F84F309B0013441B889BB223F4FA
:102F7000E14323F07003A7F842307B681B681A46D0
:102F800097F84F309B001A44B7F842306FEA43433A
:102F90006FEA53439BB213807B6DDB78012B40F0CB
:102FA000A2807B6D00229A617B6D1B7B002B00F061
:102FB0009380B7F84C3003F04003002B46D07B6D74
:102FC0005B78002B26D17B681B687B627B681B6863
:102FD000B3F850309BB21A467B6A13447B627B6D18
:102FE0001B781A017B6A134403F204433B623B6A79
:102FF0001B889BB2C3F309039AB23B6A1A803B6AEF
:103000001B889BB26FEA43436FEA53439AB23B6A11
:103010001A8061E07B6D5B78012B5DD17B681B685A
:10302000FB627B681B68B3F850309BB21A46FB6AA0
:103030001344FB627B6D1B781A01FB6A134403F295
:103040000443BB62BB6A00221A8045E07B681B68B0
:10305000FB637B6D5B78002B26D17B681B687B63F1
:103060007B681B68B3F850309BB21A467B6B1344E5
:103070007B637B6D1B781A017B6B134403F20C435B
:103080003B633B6B1B889BB2C3F309039AB23B6B58
:103090001A803B6B1B889BB26FEA43436FEA534332
:1030A0009AB23B6B1A8017E07B6D5B78012B13D1D2
:1030B0007B681B68B3F850309BB21A46FB6B134415
:1030C000FB637B6D1B781A01FB6B134403F20C430B
:1030D000BB63BB6B00221A807B6D1B781946786836
:1030E00007F0BFFE53E0B7F84C3003F48073002BB9
:1030F00046D17B681B68B3F850309BB21A467B6D93
:103100001B78DB00134402335B007A6812681344B7
:1031100003F580631B88C3F30903A7F840307B6D78
:103120009A69B7F840309A4207D97B6D9A69B7F827
:103130004030D21A7B6D9A6102E07B6D00229A6169
:103140007B6D9B69002B06D17B6D1B7819467868D7
:1031500007F087FE1BE07B6D5A69B7F840301A44D0
:103160007B6D5A617B6DDA69B7F840301A447B6D2C
:10317000DA617B681B68796D184604F0CEFA06E0C8
:10318000B7F84C301A46796D786800F01BF97B6807
:103190001B68B3F844309BB21BB2002BFFF63BAC6C
:1031A000002318465837BD4680BD80B588B000AFB3
:1031B000F860B9601346FB80FB8803F48043002B62
:1031C0007ED0FB681B68B3F850309BB21A46BB68D0
:1031D0001B78DB00134402335B00FA681268134467
:1031E00003F580631B88C3F309037B83BB689A697B
:1031F0007B8B9A4206D3BB689A697B8BD21ABB68D9
:103200009A6102E0BB6800229A61BB689B69002B4F
:1032100023D1FB681B681A46BB681B789B001344CC
:103220001B889BB223F4804323F070033B833B8BCA
:1032300083F400533B83FB681B681A46BB681B780A
:103240009B001A443B8B43F07F4343F47F0343F4DA
:10325000004343F080039BB21380FB8803F04003DC
:10326000002B1FD0FB681B681A46BB681B789B00AD
:1032700013441B889BB223F4E04323F07003FB82CA
:10328000FB681B681A46BB681B789B001A44FB8AC4
:1032900043F07F4343F47F0343F4004343F0C00310
:1032A0009BB213807B8B002B00F08780FB68186833
:1032B000BB685969BB681A897B8B05F055FF7CE0B8
:1032C000FB681B68B3F850309BB21A46BB681B788A
:1032D000DB00134406335B00FA681268134403F5FD
:1032E00080631B88C3F309037B83BB689A697B8B6C
:1032F0009A4206D3BB689A697B8BD21ABB689A61E3
:1033000002E0BB6800229A61BB689B69002B23D155
:10331000FB681B681A46BB681B789B0013441B881C
:103320009BB223F4804323F07003FB83FB8B83F475
:103330000053FB83FB681B681A46BB681B789B0025
:103340001A44FB8B43F07F4343F47F0343F4004371
:1033500043F080039BB21380FB8803F04003002BF3
:103360001FD1FB681B681A46BB681B789B0013447F
:103370001B889BB223F4E04323F07003BB83FB68FC
:103380001B681A46BB681B789B001A44BB8B43F032
:103390007F4343F47F0343F4004343F0C0039BB2F5
:1033A00013807B8B002B08D0FB681868BB685969B9
:1033B000BB685A897B8B05F0D7FE7B8B184620377C
:1033C000BD4680BD80B5A4B000AFF860B9601346BB
:1033D000FB80FB8803F04003002B00F0DD81FB68DD
:1033E0001B68B3F850309BB21A46BB681B78DB00F1
:1033F000134402335B00FA681268134403F58063D8
:103400001B88C3F30903A7F88830BB689A69B7F82B
:1034100088309A4207D9BB689A69B7F88830D21ABF
:10342000BB689A6102E0BB6800229A61BB689B6935
:10343000002B40F0B980BB685B78002B26D1FB687D
:103440001B68FB62FB681B68B3F850309BB21A46DE
:10345000FB6A1344FB62BB681B781A01FB6A1344C6
:1034600003F20443BB62BB6A1B889BB2C3F309032C
:103470009AB2BB6A1A80BB6A1B889BB26FEA43434D
:103480006FEA53439AB2BB6A1A801AE0BB685B7852
:10349000012B16D1FB681B687B63FB681B68B3F8C4
:1034A00050309BB21A467B6B13447B63BB681B781E
:1034B0001A017B6B134403F204433B633B6B002212
:1034C0001A80FB681B687B62BB685B78002B26D187
:1034D000FB681B68FB61FB681B68B3F850309BB24C
:1034E0001A46FB691344FB61BB681B781A01FB6930
:1034F000134403F20C43BB61BB691B889BB2C3F34B
:1035000009039AB2BB691A80BB691B889BB26FEA38
:1035100043436FEA53439AB2BB691A8017E0BB6812
:103520005B78012B13D1FB681B68B3F850309BB25A
:103530001A467B6A13447B62BB681B781A017B6A5C
:10354000134403F20C433B623B6A00221A80BB68BF
:103550001B781946F86807F084FCFB8803F4804365
:10356000002B00F0FC82FB681B681A46BB681B78C6
:103570009B0013441B889BB223F4E04323F07003A9
:10358000FB82FB681B681A46BB681B789B001A44C9
:10359000FB8A43F07F4343F47F0343F4404343F00B
:1035A00080039BB21380DAE2FB8803F48043002B94
:1035B00021D0FB681B681A46BB681B789B0013442C
:1035C0001B889BB223F4E04323F07003A7F88A30F2
:1035D000FB681B681A46BB681B789B001A44B7F847
:1035E0008A3043F07F4343F47F0343F4404343F086
:1035F00080039BB21380BB6893F82430012B40F00A
:10360000AE82BB685A69B7F888301A44BB685A6101
:10361000BB68DA69B7F888301A44BB68DA61BB68FE
:103620001A6ABB681B699A420BD3BB681B69C7F84F
:103630008C30BB681A6AD7F88C30D21ABB681A6211
:1036400017E0BB681B6A002B08D1B7F88830C7F8B1
:103650008C30BB68002283F824200AE0BB6800227B
:1036600083F82420BB681B6AC7F88C30BB68002233
:103670001A62BB685B78002B65D1FB681B68FB6333
:10368000FB681B68B3F850309BB21A46FB6B1344BF
:10369000FB63BB681B781A01FB6B134403F2044302
:1036A000BB63BB6B1B889BB2C3F309039AB2BB6BB2
:1036B0001A80D7F88C30002B0AD1BB6B1B889BB2C9
:1036C0006FEA43436FEA53439AB2BB6B1A8057E0E9
:1036D000D7F88C303E2B18D8D7F88C305B08BB64F9
:1036E000D7F88C3003F00103002B02D0BB6C013300
:1036F000BB64BB6B1B889AB2BB6C9BB29B029BB238
:1037000013439AB2BB6B1A803AE0D7F88C305B094E
:10371000BB64D7F88C3003F01F03002B02D1BB6CC5
:10372000013BBB64BB6B1B889AB2BB6C9BB29B0218
:103730009BB213439BB26FEA43436FEA53439AB27F
:10374000BB6B1A801CE0BB685B78012B18D1FB684F
:103750001B687B64FB681B68B3F850309BB21A4649
:103760007B6C13447B64BB681B781A017B6C13442D
:1037700003F204433B64D7F88C309AB23B6C1A8056
:10378000FB681868BB685969BB681A89D7F88C3020
:103790009BB205F0A2FCE2E1FB681B68B3F8503075
:1037A0009BB21A46BB681B78DB00134406335B00F0
:1037B000FA681268134403F580631B88C3F3090396
:1037C000A7F88830BB689A69B7F888309A4207D35F
:1037D000BB689A69B7F88830D21ABB689A6102E070
:1037E000BB6800229A61BB689B69002B40F0C080D7
:1037F000BB685B78002B26D1FB681B68FB67FB6806
:103800001B68B3F850309BB21A46FB6F1344FB673A
:10381000BB681B781A01FB6F134403F20443BB67B8
:10382000BB6F1B889BB2C3F309039AB2BB6F1A80AC
:10383000BB6F1B889BB26FEA43436FEA53439AB254
:10384000BB6F1A801AE0BB685B78012B16D1FB684E
:103850001B687B66FB681B68B3F850309BB21A4646
:103860007B6E13447B66BB681B781A017B6E134426
:1038700003F204433B663B6E00221A80FB681B6820
:103880007B67BB685B78002B2BD1FB681B68FB66F2
:10389000FB681B68B3F850309BB21A46FB6E1344AA
:1038A000FB66BB681B781A01FB6E134403F20C43E2
:1038B000C7F88430D7F884301B889BB2C3F3090360
:1038C0009AB2D7F884301A80D7F884301B889BB21C
:1038D0006FEA43436FEA53439AB2D7F884301A80B1
:1038E00017E0BB685B78012B13D1FB681B68B3F84A
:1038F00050309BB21A467B6F13447B67BB681B78C2
:103900001A017B6F134403F20C433B673B6F0022A9
:103910001A80BB681B781946F86807F0A2FAFB8882
:1039200003F48043002B40F01A81FB681B681A46A1
:10393000BB681B789B0013441B889BB223F4E043B5
:1039400023F07003A7F88230FB681B681A46BB6837
:103950001B789B001A44B7F8823043F07F4343F44E
:103960007F0343F4404343F080039BB21380F6E0AF
:10397000FB8803F48043002B21D1FB681B681A46A7
:10398000BB681B789B0013441B889BB223F4E04365
:1039900023F07003A7F84E30FB681B681A46BB681B
:1039A0001B789B001A44B7F84E3043F07F4343F432
:1039B0007F0343F4404343F080039BB21380BB6812
:1039C00093F82430012B40F0CA80BB685A69B7F8DD
:1039D00088301A44BB685A61BB68DA69B7F8883026
:1039E0001A44BB68DA61BB681A6ABB681B699A42F1
:1039F0000BD3BB681B69C7F88C30BB681A6AD7F851
:103A00008C30D21ABB681A6217E0BB681B6A002BA5
:103A100008D1B7F88830C7F88C30BB68002283F82B
:103A200024200AE0BB681B6AC7F88C30BB68002200
:103A30001A62BB68002283F82420FB681B687B6540
:103A4000BB685B78002B65D1FB681B68FB65FB6876
:103A50001B68B3F850309BB21A46FB6D1344FB65EC
:103A6000BB681B781A01FB6D134403F20C43BB6562
:103A7000BB6D1B889BB2C3F309039AB2BB6D1A805E
:103A8000D7F88C30002B0AD1BB6D1B889BB26FEA34
:103A900043436FEA53439AB2BB6D1A8054E0D7F8A0
:103AA0008C303E2B18D8D7F88C305B08BB66D7F823
:103AB0008C3003F00103002B02D0BB6E0133BB66D8
:103AC000BB6D1B889AB2BB6E9BB29B029BB2134329
:103AD0009AB2BB6D1A8037E0D7F88C305B09BB66B1
:103AE000D7F88C3003F01F03002B02D1BB6E013BD3
:103AF000BB66BB6D1B889AB2BB6E9BB29B029BB22E
:103B000013439BB26FEA43436FEA53439AB2BB6DD0
:103B10001A8019E0BB685B78012B15D1FB681B6824
:103B2000B3F850309BB21A467B6D13447B65BB687B
:103B30001B781A017B6D134403F20C433B65D7F8E5
:103B40008C309AB23B6D1A80FB681868BB68596963
:103B5000BB685A89D7F88C309BB205F0BEFAFB6877
:103B60001B681A46BB681B789B0013441B889BB2DA
:103B700023F4E04323F04003BB82BB8A83F01003AD
:103B8000BB82BB8A83F02003BB82FB681B681A469A
:103B9000BB681B789B001A44BB8A43F07F4343F405
:103BA0007F0343F4004343F080039BB21380002360
:103BB00018469037BD4680BD80B487B000AFF8602E
:103BC0007B600B467B8113463B817B8903F080033E
:103BD0009BB2002B0BD07B8903F0070213469B009E
:103BE0001344DB001033FA6813447B6109E07A89DF
:103BF00013469B001344DB0003F5A873FA681344D3
:103C00007B613B89002B07D17B6900221A737B689B
:103C10009AB27B69DA800BE07B6901221A737B68B8
:103C20009AB27B691A817B681B0C9AB27B695A81B4
:103C3000002318461C37BD465DF8047B7047000022
:103C400080B5ADF5007D00AF07F50073A3F5FE73F9
:103C5000186007F50073A3F5FE731B68002B02D1F3
:103C6000012300F0F4BF07F50073A3F5FE731B6892
:103C70001B6803F00103002B00F06D81B44B5B68FF
:103C800003F00C03042B0CD0B14B5B6803F00C0366
:103C9000082B57D1AE4B5B6803F48033B3F5803FFC
:103CA00050D14FF40033C7F8F031D7F8F03193FA20
:103CB000A3F3C7F8EC31D7F8EC31B3FA83F3DBB2F6
:103CC0003F2B02D8A24B1B6815E04FF40033C7F816
:103CD000E831D7F8E83193FAA3F3C7F8E4314FF4A9
:103CE0000033C7F8E031D7F8E03193FAA3F3C7F80F
:103CF000DC31974B5B6A4FF40032C7F8D821D7F814
:103D0000D82192FAA2F2C7F8D421D7F8D421B2FA76
:103D100082F2D2B242F02002D2B202F01F0201219E
:103D200001FA02F21340002B00F0148107F5007332
:103D3000A3F5FE731B685B68002B40F00B81012329
:103D400000F085BF07F50073A3F5FE731B685B6881
:103D5000B3F5803F06D17E4B1B687D4A43F4803328
:103D6000136036E007F50073A3F5FE731B685B680C
:103D7000002B0CD1764B1B68754A23F480331360FB
:103D8000734B1B68724A23F48023136021E007F50C
:103D90000073A3F5FE731B685B68B3F5A02F0CD10D
:103DA0006B4B1B686A4A43F480231360684B1B68A3
:103DB000674A43F4803313600BE0654B1B68644A29
:103DC00023F480331360624B1B68614A23F4802321
:103DD00013605F4BDB6A23F00F0207F50073A3F556
:103DE000FE731B689B685A491343CB6207F5007347
:103DF000A3F5FE731B685B68002B54D0FDF742FEF1
:103E0000C7F8F8010AE0FDF73DFE0246D7F8F831A1
:103E1000D31A642B02D9032300F019BF4FF40033E7
:103E2000C7F8D031D7F8D03193FAA3F3C7F8CC3123
:103E3000D7F8CC31B3FA83F3DBB23F2B02D8444B33
:103E40001B6815E04FF40033C7F8C831D7F8C83104
:103E500093FAA3F3C7F8C4314FF40033C7F8C03165
:103E6000D7F8C03193FAA3F3C7F8BC31384B5B6A7B
:103E70004FF40032C7F8B821D7F8B82192FAA2F26D
:103E8000C7F8B421D7F8B421B2FA82F2D2B242F024
:103E90002002D2B202F01F02012101FA02F2134005
:103EA000002BB0D057E0FDF7EDFDC7F8F8010AE0B0
:103EB000FDF7E8FD0246D7F8F831D31A642B02D992
:103EC000032300F0C4BE4FF40033C7F8B031D7F875
:103ED000B03193FAA3F3C7F8AC31D7F8AC31B3FAE9
:103EE00083F3DBB23F2B02D8194B1B6815E04FF46C
:103EF0000033C7F8A831D7F8A83193FAA3F3C7F86D
:103F0000A4314FF40033C7F8A031D7F8A03193FAA9
:103F1000A3F3C7F89C310E4B5B6A4FF40032C7F82D
:103F20009821D7F8982192FAA2F2C7F89421D7F8ED
:103F30009421B2FA82F2D2B242F02002D2B202F05E
:103F40001F02012101FA02F21340002BB0D102E05E
:103F50000010024000BF07F50073A3F5FE731B6855
:103F60001B6803F00203002B00F06C81CC4B5B68F4
:103F700003F00C03002B0BD0C94B5B6803F00C0360
:103F8000082B6DD1C64B5B6803F48033002B67D1DF
:103F90000223C7F89031D7F8903193FAA3F3C7F80A
:103FA0008C31D7F88C31B3FA83F3DBB23F2B02D8D4
:103FB000BB4B1B6813E00223C7F88831D7F8883160
:103FC00093FAA3F3C7F884310223C7F88031D7F8F6
:103FD000803193FAA3F3C7F87C31B14B5B6A0222BC
:103FE000C7F87821D7F8782192FAA2F2C7F874219D
:103FF000D7F87421B2FA82F2D2B242F02002D2B2E1
:1040000002F01F02012101FA02F21340002B0AD034
:1040100007F50073A3F5FE731B681B69012B02D023
:10402000012300F014BE9E4B1B6823F0F80207F535
:104030000073A3F5FE731B685B69F821C7F8701164
:10404000D7F8701191FAA1F1C7F86C11D7F86C117B
:10405000B1FA81F1C9B28B40914913430B60F1E091
:1040600007F50073A3F5FE731B681B69002B00F0B6
:1040700083800123C7F86831D7F8683193FAA3F336
:10408000C7F86431D7F86431B3FA83F3DBB203F1D4
:10409000845303F584139B001A4601231360FDF734
:1040A000F1FCC7F8F8010AE0FDF7ECFC0246D7F88E
:1040B000F831D31A022B02D9032300F0C8BD022322
:1040C000C7F86031D7F8603193FAA3F3C7F85C31D1
:1040D000D7F85C31B3FA83F3DBB23F2B02D8704BD5
:1040E0001B6813E00223C7F85831D7F8583193FA08
:1040F000A3F3C7F854310223C7F85031D7F8503131
:1041000093FAA3F3C7F84C31654B5B6A0222C7F8F8
:104110004821D7F8482192FAA2F2C7F84421D7F8EB
:104120004421B2FA82F2D2B242F02002D2B202F0BC
:104130001F02012101FA02F21340002BB4D0584BA8
:104140001B6823F0F80207F50073A3F5FE731B68E4
:104150005B69F821C7F84011D7F8401191FAA1F135
:10416000C7F83C11D7F83C11B1FA81F1C9B28B40C4
:104170004B4913430B6065E00123C7F83831D7F88A
:10418000383193FAA3F3C7F83431D7F83431B3FA9E
:1041900083F3DBB203F1845303F584139B001A46C7
:1041A00000231360FDF76EFCC7F8F8010AE0FDF785
:1041B00069FC0246D7F8F831D31A022B02D903233F
:1041C00000F045BD0223C7F83031D7F8303193FAFB
:1041D000A3F3C7F82C31D7F82C31B3FA83F3DBB251
:1041E0003F2B02D82E4B1B6813E00223C7F828315F
:1041F000D7F8283193FAA3F3C7F824310223C7F87C
:104200002031D7F8203193FAA3F3C7F81C31244B9F
:104210005B6A0222C7F81821D7F8182192FAA2F295
:10422000C7F81421D7F81421B2FA82F2D2B242F0C0
:104230002002D2B202F01F02012101FA02F2134061
:10424000002BB4D107F50073A3F5FE731B681B6840
:1042500003F00803002B00F0158107F50073A3F5A8
:10426000FE731B689B69002B7ED00123C7F81031B9
:10427000D7F8103193FAA3F3C7F80C31D7F80C3103
:10428000B3FA83F3DBB21A46064B13449B001A467B
:1042900001231360FDF7F6FBC7F8F8010FE000BF3C
:1042A0000010024020819010FDF7ECFB0246D7F889
:1042B000F831D31A022B02D9032300F0C8BC022321
:1042C000C7F80831D7F8083193FAA3F3C7F80431D7
:1042D00007F50073A3F5807302221A6007F50073D7
:1042E000A3F580731B6893FAA3F207F50073A3F597
:1042F00082731A6007F50073A3F5847302221A60B3
:1043000007F50073A3F584731B6893FAA3F207F50E
:104310000073A3F586731A60B04B5A6A07F50073F1
:10432000A3F588730221196007F50073A3F588735C
:104330001B6893FAA3F107F50073A3F58A7319605C
:1043400007F50073A3F58A731B68B3FA83F3DBB236
:1043500043F06003DBB203F01F03012101FA03F312
:104360001340002BA0D08DE007F50073A3F58C73EC
:1043700001221A6007F50073A3F58C731B6893FA8A
:10438000A3F207F50073A3F58E731A6007F50073A7
:10439000A3F58E731B68B3FA83F3DBB21A46904B16
:1043A00013449B001A4600231360FDF76BFBC7F80C
:1043B000F8010AE0FDF766FB0246D7F8F831D31A98
:1043C000022B02D9032300F042BC07F50073A3F5CA
:1043D000907302221A6007F50073A3F590731B68AF
:1043E00093FAA3F207F50073A3F592731A6007F529
:1043F0000073A3F5947302221A6007F50073A3F506
:1044000094731B6893FAA3F207F50073A3F59673F0
:104410001A6007F50073A3F5987302221A6007F576
:104420000073A3F598731B6893FAA3F207F5007362
:10443000A3F59A731A60694B5A6A07F50073A3F5DE
:104440009C730221196007F50073A3F59C731B6828
:1044500093FAA3F107F50073A3F59E73196007F5AE
:104460000073A3F59E731B68B3FA83F3DBB243F0CA
:104470006003DBB203F01F03012101FA03F31340D1
:10448000002B97D107F50073A3F5FE731B681B681B
:1044900003F00403002B00F09E81002387F8FF3116
:1044A0004E4BDB6903F08053002B16D14B4BDB697D
:1044B0004A4A43F08053D361484BDB6903F0805292
:1044C00007F50073A3F5FC731A6007F50073A3F5F5
:1044D000FC731B68012387F8FF31424B1B6803F410
:1044E0008073002B1AD13F4B1B683E4A43F4807304
:1044F0001360FDF7C7FAC7F8F80109E0FDF7C2FA43
:104500000246D7F8F831D31A642B01D903239EE36E
:10451000344B1B6803F48073002BEFD007F5007356
:10452000A3F5FE731B68DB68012B06D12B4B1B6ABE
:104530002A4A43F00103136235E007F50073A3F53F
:10454000FE731B68DB68002B0CD1244B1B6A234ACB
:1045500023F001031362214B1B6A204A23F004035A
:10456000136220E007F50073A3F5FE731B68DB6898
:10457000052B0CD1194B1B6A184A43F00403136234
:10458000164B1B6A154A43F0010313620BE0134BF1
:104590001B6A124A23F001031362104B1B6A0F4A75
:1045A00023F00403136207F50073A3F5FE731B6881
:1045B000DB68002B00F08780FDF764FAC7F8F8018C
:1045C00012E0FDF75FFA0246D7F8F831D31A41F24C
:1045D0008832934208D9032339E300BF0010024018
:1045E000208190100070004007F50073A3F5A073C0
:1045F00002221A6007F50073A3F5A0731B6893FAF3
:10460000A3F207F50073A3F5A2731A6007F5007310
:10461000A3F5A47302221A6007F50073A3F5A4732F
:104620001B6893FAA3F207F50073A3F5A6731A604B
:1046300007F50073A3F5A6731B68B3FA83F3DBB227
:1046400023F05F03DBB2002B02D1984B1B6A13E00F
:1046500007F50073A3F5A87302221A6007F500732B
:10466000A3F5A8731B6893FAA3F207F50073A3F5EB
:10467000AA731A608D4B5B6A07F50072A2F5AC72E3
:104680000221116007F50072A2F5AC72126892FA6D
:10469000A2F107F50072A2F5AE72116007F5007283
:1046A000A2F5AE721268B2FA82F2D2B242F04002C1
:1046B000D2B202F01F02012101FA02F21340002BD4
:1046C0003FF47FAF7DE0FDF7DDF9C7F8F8010BE0BF
:1046D000FDF7D8F90246D7F8F831D31A41F28832FB
:1046E000934201D90323B2E207F50073A3F5B07337
:1046F00002221A6007F50073A3F5B0731B6893FAE2
:10470000A3F207F50073A3F5B2731A6007F50073FF
:10471000A3F5B47302221A6007F50073A3F5B4730E
:104720001B6893FAA3F207F50073A3F5B6731A603A
:1047300007F50073A3F5B6731B68B3FA83F3DBB216
:1047400023F05F03DBB2002B02D1584B1B6A13E04E
:1047500007F50073A3F5B87302221A6007F500731A
:10476000A3F5B8731B6893FAA3F207F50073A3F5DA
:10477000BA731A604D4B5B6A07F50072A2F5BC7202
:104780000221116007F50072A2F5BC72126892FA5C
:10479000A2F107F50072A2F5BE72116007F5007272
:1047A000A2F5BE721268B2FA82F2D2B242F04002B0
:1047B000D2B202F01F02012101FA02F21340002BD3
:1047C00086D197F8FF31012B05D1384BDB69374A89
:1047D00023F08053D36107F50073A3F5FE731B68C4
:1047E000DB69002B00F03282304B5B6803F00C0376
:1047F000082B00F0018207F50073A3F5FE731B6818
:10480000DB69022B40F0578107F50073A3F5C073F5
:104810004FF080721A6007F50073A3F5C0731B6830
:1048200093FAA3F207F50073A3F5C2731A6007F5B4
:104830000073A3F5C2731B68B3FA83F3DBB203F111
:10484000845303F584139B001A4600231360FDF77D
:1048500019F9C7F8F80109E0FDF714F90246D7F88D
:10486000F831D31A022B01D90323F0E107F50073C5
:10487000A3F5C4734FF000721A6007F50073A3F537
:10488000C4731B6893FAA3F207F50073A3F5C6730C
:104890001A6007F50073A3F5C6731B68B3FA83F3B8
:1048A000DBB23F2B04D8014B1B6829E0001002400B
:1048B00007F50073A3F5C8734FF000721A6007F58F
:1048C0000073A3F5C8731B6893FAA3F207F500738E
:1048D000A3F5CA731A6007F50073A3F5CC734FF004
:1048E00000721A6007F50073A3F5CC731B6893FA86
:1048F000A3F207F50073A3F5CE731A60C34B5B6A8E
:1049000007F50072A2F5D0724FF00071116007F543
:104910000072A2F5D072126892FAA2F107F5007245
:10492000A2F5D272116007F50072A2F5D272126878
:10493000B2FA82F2D2B242F02002D2B202F01F02E8
:10494000012101FA02F21340002B85D1AF4B5B68C5
:1049500023F4741207F50073A3F5FE731B68596AFC
:1049600007F50073A3F5FE731B681B6A0B43A74989
:1049700013434B6007F50073A3F5D4734FF08072B7
:104980001A6007F50073A3F5D4731B6893FAA3F2BA
:1049900007F50073A3F5D6731A6007F50073A3F546
:1049A000D6731B68B3FA83F3DBB203F1845303F5C8
:1049B00084139B001A4601231360FDF763F8C7F8C0
:1049C000F80109E0FDF75EF80246D7F8F831D31A8E
:1049D000022B01D903233AE107F50073A3F5D8733D
:1049E0004FF000721A6007F50073A3F5D8731B68C7
:1049F00093FAA3F207F50073A3F5DA731A6007F5CB
:104A00000073A3F5DA731B68B3FA83F3DBB23F2BB1
:104A100002D87E4B1B6827E007F50073A3F5DC7313
:104A20004FF000721A6007F50073A3F5DC731B6882
:104A300093FAA3F207F50073A3F5DE731A6007F586
:104A40000073A3F5E0734FF000721A6007F500736E
:104A5000A3F5E0731B6893FAA3F207F50073A3F5BF
:104A6000E2731A60694B5B6A07F50072A2F5E472A3
:104A70004FF00071116007F50072A2F5E472126840
:104A800092FAA2F107F50072A2F5E672116007F53D
:104A90000072A2F5E6721268B2FA82F2D2B242F065
:104AA0002002D2B202F01F02012101FA02F21340E9
:104AB000002B87D0CAE007F50073A3F5E8734FF029
:104AC00080721A6007F50073A3F5E8731B6893FA08
:104AD000A3F207F50073A3F5EA731A6007F50073F4
:104AE000A3F5EA731B68B3FA83F3DBB203F18453D3
:104AF00003F584139B001A4600231360FCF7C2FFE2
:104B0000C7F8F80109E0FCF7BDFF0246D7F8F83115
:104B1000D31A022B01D9032399E007F50073A3F5FB
:104B2000EC734FF000721A6007F50073A3F5EC7395
:104B30001B6893FAA3F207F50073A3F5EE731A60EE
:104B400007F50073A3F5EE731B68B3FA83F3DBB2CA
:104B50003F2B02D82D4B1B6827E007F50073A3F508
:104B6000F0734FF000721A6007F50073A3F5F0734D
:104B70001B6893FAA3F207F50073A3F5F2731A60AA
:104B800007F50073A3F5F4734FF000721A6007F590
:104B90000073A3F5F4731B6893FAA3F207F500738F
:104BA000A3F5F6731A60194B5B6A07F50072A2F55C
:104BB000F8724FF00071116007F50072A2F5F872FB
:104BC000126892FAA2F107F50072A2F5FA7211606A
:104BD00007F50072A2F5FA721268B2FA82F2D2B246
:104BE00042F02002D2B202F01F02012101FA02F2C9
:104BF0001340002B87D129E007F50073A3F5FE735E
:104C00001B68DB69012B03D1012320E00010024067
:104C1000114B5B68C7F8F431D7F8F43103F48032F4
:104C200007F50073A3F5FE731B681B6A9A420BD14C
:104C3000D7F8F43103F4701207F50073A3F5FE738F
:104C40001B685B6A9A4201D0012300E000231846EA
:104C500007F50077BD4680BD0010024080B59EB0CC
:104C600000AF7860396000237B677B68002B01D13F
:104C7000012354E1894B1B6803F007033A689A4209
:104C800010D9864B1B6823F0070284493B68134305
:104C90000B60824B1B6803F007033A689A4201D00D
:104CA00001233CE17B681B6803F00203002B08D062
:104CB0007B4B5B6823F0F0027B689B687849134369
:104CC0004B607B681B6803F00103002B00F0CD8074
:104CD0007B685B68012B37D14FF40033FB66FB6EBA
:104CE00093FAA3F33B673B6FB3FA83F3DBB23F2B3B
:104CF00002D86B4B1B680FE04FF40033BB66BB6EF2
:104D000093FAA3F37B664FF400333B663B6E93FA52
:104D1000A3F3FB65624B5B6A4FF40032BA65BA6D70
:104D200092FAA2F27A657A6DB2FA82F2D2B242F0C7
:104D30002002D2B202F01F02012101FA02F2134056
:104D4000002B71D10123EAE07B685B68022B37D12D
:104D50004FF000733B653B6D93FAA3F3FB64FB6C70
:104D6000B3FA83F3DBB23F2B02D84D4B1B680FE045
:104D70004FF00073BB64BB6C93FAA3F37B644FF0FA
:104D800000733B643B6C93FAA3F3FB63444B5B6A95
:104D90004FF00072BA63BA6B92FAA2F27A637A6B3E
:104DA000B2FA82F2D2B242F02002D2B202F01F0274
:104DB000012101FA02F21340002B35D10123AEE0AC
:104DC00002233B633B6B93FAA3F3FB62FB6AB3FAE8
:104DD00083F3DBB23F2B02D8314B1B680DE002237B
:104DE000BB62BB6A93FAA3F37B6202233B623B6A1A
:104DF00093FAA3F3FB612A4B5B6A0222BA61BA6998
:104E000092FAA2F27A617A69B2FA82F2D2B242F0EE
:104E10002002D2B202F01F02012101FA02F2134075
:104E2000002B01D101237AE01D4B5B6823F00302C4
:104E30007B685B681A4913434B60FCF723FE786775
:104E40000AE0FCF71FFE02467B6FD31A41F288325C
:104E5000934201D9032362E0114B5B6803F00C021B
:104E60007B685B689B009A42EBD10C4B1B6803F09C
:104E700007033A689A4215D2084B1B6823F00702D1
:104E800006493B6813430B60044B1B6803F00703A0
:104E90003A689A4206D0012341E000BF0020024058
:104EA000001002407B681B6803F00403002B08D04D
:104EB0001D4B5B6823F4E0627B68DB681A4913438F
:104EC0004B607B681B6803F00803002B09D0164B6E
:104ED0005B6823F460527B681B69DB001249134353
:104EE0004B6000F029F801460F4B5B6803F0F003BC
:104EF000F0223A613A6992FAA2F2FA60FA68B2FADA
:104F000082F2D2B2D340094AD35C21FA03F3084AB1
:104F10001360084B1B681846FCF770FD0023184609
:104F20007837BD4680BD00BF0010024074E0000825
:104F3000000000200400002080B487B000AF0023F0
:104F4000FB600023BB6000237B6100237B600023A8
:104F50003B611E4B5B68FB60FB6803F00C03042B9A
:104F600002D0082B03D026E0194B3B6126E0FB68FA
:104F70009B0C03F00F03174AD35C7B60134BDB6A77
:104F800003F00F03144AD35CBB60FB6803F4803367
:104F9000002B08D00E4ABB68B2FBF3F27B6802FB21
:104FA00003F37B6104E07B680C4A02FB03F37B6143
:104FB0007B693B6102E0064B3B6100BF3B691846E1
:104FC0001C37BD465DF8047B704700BF00100240EF
:104FD00000127A0084E0000894E0000800093D0017
:104FE00080B592B000AF786000233B640023FB6380
:104FF000002387F847307B681B6803F48033002B5D
:1050000000F0D2804D4BDB6903F08053002B0ED1B2
:105010004A4BDB69494A43F08053D361474BDB6914
:1050200003F08053BB60BB68012387F84730444BD3
:105030001B6803F48073002B18D1414B1B68404A56
:1050400043F480731360FCF71DFD386408E0FCF73F
:1050500019FD02463B6CD31A642B01D9032367E187
:10506000374B1B6803F48073002BF0D0334B1B6A63
:1050700003F44073FB63FB6B002B00F082807B68C2
:105080005B6803F44073FA6B9A427AD02B4B1B6A2D
:1050900023F44073FB634FF480333B633B6B93FA21
:1050A000A3F3FB62FB6AB3FA83F3DBB21A46254B28
:1050B00013449B001A46012313604FF48033BB63F3
:1050C000BB6B93FAA3F37B637B6BB3FA83F3DBB223
:1050D0001A461C4B13449B001A4600231360174AC0
:1050E000FB6B1362FB6B03F00103002B49D0FCF751
:1050F000C9FC38640AE0FCF7C5FC02463B6CD31AD5
:1051000041F28832934201D9032311E10223BB62A9
:10511000BB6A93FAA3F37B6202233B623B6A93FA76
:10512000A3F3FB61FB69B3FA83F3DBB223F05F0304
:10513000DBB2002B08D1014B1B6A0DE000100240CE
:1051400000700040008190100223BB61BB6993FA9C
:10515000A3F37B61784B5B6A02223A613A6992FA67
:10516000A2F2FA60FA68B2FA82F2D2B242F04002D7
:10517000D2B202F01F02012101FA02F21340002B09
:10518000B9D06D4B1B6A23F440727B685B686A4937
:1051900013430B6297F84730012B05D1664BDB694F
:1051A000654A23F08053D3617B681B6803F00103D9
:1051B000002B08D0604B1B6B23F003027B689B68BD
:1051C0005D4913430B637B681B6803F00203002BEC
:1051D00008D0594B1B6B23F440327B68DB6856497F
:1051E00013430B637B681B6803F00403002B08D098
:1051F000514B1B6B23F440227B681B694E491343C0
:105200000B637B681B6803F02003002B08D04A4B1C
:105210001B6B23F010027B68DB69474913430B6368
:105220007B681B6803F40033002B08D0424B5B689B
:1052300023F480027B689B6B3F4913434B607B6880
:105240001B6803F04003002B08D03B4B1B6B23F083
:1052500020027B681B6A384913430B637B681B6819
:1052600003F00803002B08D0334B1B6B23F44012D0
:105270007B685B69304913430B637B681B6803F0F1
:105280001003002B08D02C4B1B6B23F440027B68CF
:105290009B69294913430B637B681B6803F4007304
:1052A000002B08D0244B5B6823F400027B68DB6A88
:1052B000214913434B607B681B6803F08003002B7C
:1052C00008D01D4BDB6A23F4F8727B685B6A1A49CD
:1052D0001343CB627B681B6803F48073002B08D0F8
:1052E000154BDB6A23F478527B689B6A124913439F
:1052F000CB627B681B6803F48053002B08D00E4BF5
:105300001B6B23F480727B681B6B0B4913430B638D
:105310007B681B6803F40053002B08D0064B1B6B03
:1053200023F400727B685B6B034913430B63002318
:1053300018464837BD4680BD0010024080B584B095
:1053400000AF78607B68002B01D101239DE07B6872
:105350005B6A002B08D17B685B68B3F5827F09D05C
:105360007B680022DA6105E07B6800221A617B68B5
:1053700000225A617B6800229A627B6893F85D3054
:10538000DBB2002B06D17B68002283F85C207868B2
:10539000FCF76EF97B68022283F85D207B681B684E
:1053A0001A687B681B6822F040021A607B68DB6821
:1053B000B3F5E06F02D90023FB6002E04FF48053A5
:1053C000FB607B68DB68B3F5706F07D07B68DB68D8
:1053D000B3F5E06F02D07B6800229A627B685B685D
:1053E00003F482727B689B6803F404431A437B686E
:1053F0001B6903F002031A437B685B6903F0010336
:105400001A437B689B6903F400731A437B68DB696A
:1054100003F038031A437B681B6A03F0800342EAF7
:1054200003017B689B6A03F400527B681B680A4394
:105430001A607B689B691B0C03F004027B685B6A43
:1054400003F010031A437B685B6B03F008031A43F5
:105450007B68DB6803F4706342EA0301FB6803F4D2
:1054600080527B681B680A435A607B681B68DA6954
:105470007B681B6822F40062DA617B6800221A668E
:105480007B68012283F85D20002318461037BD4653
:1054900080BD80B588B000AFF860B9603B6013464E
:1054A000FB800023FB77FB6893F85C30012B01D174
:1054B00002235FE1FB68012283F85C20FCF7E2FA3B
:1054C000B861FB88FB82FB6893F85D30DBB2012B8F
:1054D00002D00223FB7748E1BB68002B02D0FB8897
:1054E000002B02D10123FB773FE1FB68032283F805
:1054F0005D20FB6800221A66FB68BA689A63FB6845
:10550000FA889A87FB68FA88DA87FB6800221A64AF
:10551000FB680022A3F84420FB680022A3F8462081
:10552000FB6800221A65FB680022DA64FB689B684E
:10553000B3F5004F0FD1FB681B681A68FB681B6846
:1055400022F040021A60FB681B681A68FB681B683F
:1055500042F480421A60FB681B681B6803F040033A
:10556000402B07D0FB681B681A68FB681B6842F079
:1055700040021A60FB68DB68B3F5E06F4FD9FB6847
:105580005B68002B02D0FB8A012B42D1FB689B6B2E
:105590001A88FB681B68DA60FB689B6B9A1CFB68C7
:1055A0009A63FB68DB8F9BB2013B9AB2FB68DA8798
:1055B0002FE0FB681B689B6803F00203022B12D1EB
:1055C000FB689B6B1A88FB681B68DA60FB689B6B47
:1055D0009A1CFB689A63FB68DB8F9BB2013B9AB213
:1055E000FB68DA8715E0FCF74DFA0246BB69D31A6F
:1055F0003A689A4203D83B68B3F1FF3F02D13B6857
:10560000002B06D10323FB77FB68012283F85D2082
:10561000ABE0FB68DB8F9BB2002BCAD180E0FB685C
:105620005B68002B02D0FB8A012B74D1FB68DB8FF7
:105630009BB2012B12D9FB689B6B1A88FB681B6815
:10564000DA60FB689B6B9A1CFB689A63FB68DB8FD4
:105650009BB2023B9AB2FB68DA875CE0FB689A6B0C
:10566000FB681B680C3312781A70FB689B6B5A1C22
:10567000FB689A63FB68DB8F9BB2013B9AB2FB68C5
:10568000DA8748E0FB681B689B6803F00203022B83
:105690002BD1FB68DB8F9BB2012B12D9FB689B6B74
:1056A0001A88FB681B68DA60FB689B6B9A1CFB68B6
:1056B0009A63FB68DB8F9BB2023B9AB2FB68DA8786
:1056C00029E0FB689A6BFB681B680C3312781A7030
:1056D000FB689B6B5A1CFB689A63FB68DB8F9BB271
:1056E000013B9AB2FB68DA8715E0FCF7CBF902467A
:1056F000BB69D31A3A689A4203D83B68B3F1FF3FBB
:1057000002D13B68002B06D10323FB77FB68012203
:1057100083F85D2029E0FB68DB8F9BB2002BB1D1C1
:10572000BA693968F86800F0F9FC0346002B02D02A
:10573000FB6820221A66FB689B68002B0AD10023B5
:105740003B61FB681B68DB683B61FB681B689B680F
:105750003B613B69FB681B6E002B02D00123FB778A
:1057600003E0FB68012283F85D20FB68002283F8D8
:105770005C20FB7F18462037BD4680BD80B588B0D1
:1057800002AFF860B9603B601346FB800023FB75F5
:10579000FB6893F85D30DBB2012B02D00223FB756E
:1057A0001AE1FB685B68B3F5827F12D1FB689B68E6
:1057B000002B0ED1FB68042283F85D20FA883B6839
:1057C00000931346BA68B968F86800F00EF903460A
:1057D00007E1FB6893F85C30012B01D1022300E163
:1057E000FB68012283F85C20FCF74CF93861BB6848
:1057F000002B02D0FB88002B02D10123FB75EBE0CC
:10580000FB68042283F85D20FB6800221A66FB68AF
:10581000BA681A64FB68FA88A3F84420FB68FA881F
:10582000A3F84620FB6800229A63FB6800229A874F
:10583000FB680022DA87FB680022DA64FB6800223A
:105840001A65FB68DB68B3F5E06F08D9FB681B6875
:105850005A68FB681B6822F480525A6007E0FB68B4
:105860001B685A68FB681B6842F480525A60FB68E8
:105870009B68B3F5004F0FD1FB681B681A68FB6883
:105880001B6822F040021A60FB681B681A68FB68FC
:105890001B6822F480421A60FB681B681B6803F0D7
:1058A0004003402B07D0FB681B681A68FB681B6825
:1058B00042F040021A60FB68DB68B3F5E06F6FD816
:1058C00034E0FB681B689B6803F00103012B17D1D0
:1058D000FB681B6803F10C02FB681B6C1278D2B2E8
:1058E0001A70FB681B6C5A1CFB681A64FB68B3F8DF
:1058F00046309BB2013B9AB2FB68A3F8462015E004
:10590000FCF7C0F802463B69D31A3A689A4203D8BA
:105910003B68B3F1FF3F02D13B68002B06D1032364
:10592000FB75FB68012283F85D2055E0FB68B3F846
:1059300046309BB2002BC4D138E0FB681B689B68E3
:1059400003F00103012B15D1FB681B68DA68FB68C3
:105950001B6C92B21A80FB681B6C9A1CFB681A6461
:10596000FB68B3F846309BB2013B9AB2FB68A3F8E0
:10597000462015E0FCF786F802463B69D31A3A68E0
:105980009A4203D83B68B3F1FF3F02D13B68002B3A
:1059900006D10323FB75FB68012283F85D201BE021
:1059A000FB68B3F846309BB2002BC6D13A69396820
:1059B000F86800F05BFB0346002B02D0FB68202256
:1059C0001A66FB681B6E002B02D00123FB7503E0F7
:1059D000FB68012283F85D20FB68002283F85C20CD
:1059E000FB7D18461837BD4680BD80B58AB000AF34
:1059F000F860B9607A607B8001237B62002387F8BE
:105A00002330FB6893F85C30012B01D102230AE2BA
:105A1000FB68012283F85C20FCF734F8F861FB682E
:105A200093F85D30FB76FB685B687B617B887B82EB
:105A30007B883B82FB7E012B0ED07B69B3F5827F96
:105A400006D1FB689B68002B02D1FB7E042B03D0A0
:105A5000022387F82330E0E1BB68002B05D07B6888
:105A6000002B02D07B88002B03D1012387F8233041
:105A7000D3E1FB6893F85D30DBB2042B03D0FB6805
:105A8000052283F85D20FB6800221A66FB687A68AD
:105A90001A64FB687A88A3F84620FB687A88A3F822
:105AA0004420FB68BA689A63FB687A88DA87FB68E7
:105AB0007A889A87FB680022DA64FB6800221A65FC
:105AC000FB68DB68B3F5E06F02D83B8A012B08D98D
:105AD000FB681B685A68FB681B6822F480525A6096
