:020000040800F2
:1000000000A00020052D0008952A00089D2A000860
:10001000A52A0008AD2A0008B52A00080000000043
:10002000000000000000000000000000BD2A0008E1
:10003000CB2A000800000000D92A0008E72A00089F
:10004000552D0008552D0008552D0008552D000888
:10005000552D0008552D0008552D00081D2B0008B2
:10006000552D0008552D0008552D0008552D000868
:10007000552D0008552D0008552D0008552D000858
:10008000552D0008552D0008552D0008552D000848
:10009000F52A0008552D0008552D0008552D00089B
:1000A000552D0008552D0008552D0008552D000828
:1000B000412B00082D2B0008552D0008552D000858
:1000C000552D0008552D0008552D0008552D000808
:1000D000552D0008552D0008552D0008092B000846
:1000E000552D0008552D0008552D0008552D0008E8
:1000F000552D0008552D0008552D0008552D0008D8
:10010000000000000000000000000000552D000865
:10011000552D0008552D0008552D0008552D0008B7
:10012000552D0008552D0008552D0008552D0008A7
:10013000552D0008552D00080000000000000000AB
:10014000552D0008552D0008552D00080000000011
:10015000000000000000000000000000000000009F
:100160000000000000000000552D0008552D00087B
:10017000552D0008000000000000000000000000F5
:0801800000000000552D0008ED
:1001900010B5054C237833B9044B13B10448AFF3C1
:1001A00000800123237010BDC40300200000000064
:1001B0002815010808B5034B1BB103490348AFF3E9
:1001C000008008BD00000000C803002028150108B9
:1001D00010F8012B11F8013B012A28BF9A42F7D0F1
:1001E000D01A70470000000000000000000000006E
:1001F00001F0FF01102A2BDB10F0070F08D010F8D8
:10020000013B013A8B422DD010F0070F42B3F6D1DB
:10021000F0B441EA012141EA014122F007047FF0F4
:1002200000070023F0E80256083C85EA010586EA4B
:10023000010685FA47F5A3FA87F586FA47F6A5FA87
:1002400087F68EB9EED1F0BC01F0FF0102F0070293
:1002500032B110F8013B013A83EA010313B1F8D13E
:100260000020704701387047002D06BF354603381F
:10027000073815F0010F07D1013015F4807F02BF58
:10028000013015F4C03F0130F0BC0138704700BFA9
:10029000034613F8012B002AFBD1181A01387047C6
:1002A00081F0004102E000BF83F0004330B54FEA27
:1002B00041044FEA430594EA050F08BF90EA020F94
:1002C0001FBF54EA000C55EA020C7FEA645C7FEA27
:1002D000655C00F0E2804FEA5454D4EB5555B8BF4A
:1002E0006D420CDD2C4480EA020281EA030382EABB
:1002F000000083EA010180EA020281EA0303362D4D
:1003000088BF30BD11F0004F4FEA01314FF4801C1F
:100310004CEA113102D0404261EB410113F0004F31
:100320004FEA03334CEA133302D0524263EB4303E8
:1003300094EA050F00F0A780A4F10104D5F1200E86
:100340000DDB02FA0EFC22FA05F2801841F10001E1
:1003500003FA0EF2801843FA05F359410EE0A5F1B5
:1003600020050EF1200E012A03FA0EFC28BF4CF0E6
:10037000020C43FA05F3C01851EBE37101F000459C
:1003800007D54FF0000EDCF1000C7EEB00006EEBA9
:100390000101B1F5801F1BD3B1F5001F0CD3490833
:1003A0005FEA30004FEA3C0C04F101044FEA44528A
:1003B00012F5800F80F09A80BCF1004F08BF5FEA11
:1003C000500C50F1000041EB045141EA050130BDF1
:1003D0005FEA4C0C404141EB0101013C28BFB1F503
:1003E000801FE9D291F0000F04BF01460020B1FA4E
:1003F00081F308BF2033A3F10B03B3F120020CDA21
:100400000C3208DD02F1140CC2F10C0201FA0CF0FE
:1004100021FA02F10CE002F11402D8BFC2F1200C63
:1004200001FA02F120FA0CFCDCBF41EA0C01904019
:10043000E41AA2BF01EB0451294330BD6FEA040462
:100440001F3C1CDA0C340EDC04F11404C4F120024D
:1004500020FA04F001FA02F340EA030021FA04F35F
:1004600045EA030130BDC4F10C04C4F1200220FAB6
:1004700002F001FA04F340EA0300294630BD21FAF4
:1004800004F0294630BD94F0000F83F4801306BFBA
:1004900081F480110134013D4EE77FEA645C18BFAE
:1004A0007FEA655C29D094EA050F08BF90EA020F45
:1004B00005D054EA000C04BF1946104630BD91EA3D
:1004C000030F1EBF0021002030BD5FEA545C05D140
:1004D0004000494128BF41F0004130BD14F580047F
:1004E0003CBF01F5801130BD01F0004545F0FE41F3
:1004F00041F470014FF0000030BD7FEA645C1ABF28
:10050000194610467FEA655C1CBF0B46024650EA5E
:10051000013406BF52EA033591EA030F41F400218A
:1005200030BD00BF90F0000F04BF0021704730B510
:100530004FF4806404F132044FF000054FF00001E5
:1005400050E700BF90F0000F04BF0021704730B5A6
:100550004FF4806404F1320410F0004548BF40427B
:100560004FF000013EE700BF42004FEAE2014FEAD0
:1005700031014FEA02701FBF12F07F4393F07F4FAB
:1005800081F06051704732F07F4208BF704793F0AE
:100590007F4F04BF41F40021704730B54FF46074C1
:1005A00001F0004521F000411CE700BF50EA0102C4
:1005B00008BF704730B54FF000050AE050EA01026D
:1005C00008BF704730B511F0004502D5404261EBDD
:1005D00041014FF4806404F132045FEA915C3FF41E
:1005E000D8AE4FF003025FEADC0C18BF03325FEABB
:1005F000DC0C18BF033202EBDC02C2F1200300FA6C
:1006000003FC20FA02F001FA03FE40EA0E0021FA90
:1006100002F11444BDE600BF70B54FF0FF0C4CF47E
:10062000E06C1CEA11541DBF1CEA135594EA0C0F30
:1006300095EA0C0F00F0DEF82C4481EA030621EA6B
:100640004C5123EA4C5350EA013518BF52EA0335A6
:1006500041F4801143F4801338D0A0FB02CE4FF058
:100660000005E1FB02E506F00042E0FB03E54FF088
:100670000006E1FB03569CF0000F18BF4EF0010E80
:10068000A4F1FF04B6F5007F64F5407404D25FEA7C
:100690004E0E6D4146EB060642EAC62141EA55512F
:1006A0004FEAC52040EA5E504FEACE2EB4F1FD0C71
:1006B00088BFBCF5E06F1ED8BEF1004F08BF5FEAEF
:1006C000500E50F1000041EB045170BD06F00046A1
:1006D00046EA010140EA020081EA0301B4EB5C044E
:1006E000C2BFD4EB0C0541EA045170BD41F4801146
:1006F0004FF0000E013C00F3AB8014F1360FDEBF6B
:10070000002001F0004170BDC4F10004203C35DA46
:100710000C341BDC04F11404C4F1200500FA05F3C9
:1007200020FA04F001FA05F240EA020001F000426A
:1007300021F0004110EBD37021FA04F642EB0601E0
:100740005EEA430E08BF20EAD37070BDC4F10C040A
:10075000C4F1200500FA04F320FA05F001FA04F2CE
:1007600040EA020001F0004110EBD37041F10001BA
:100770005EEA430E08BF20EAD37070BDC4F12005C5
:1007800000FA05F24EEA020E20FA04F301FA05F22D
:1007900043EA020321FA04F001F0004121FA04F2D5
:1007A00020EA020000EBD3705EEA430E08BF20EAA5
:1007B000D37070BD94F0000F0FD101F000464000DF
:1007C00041EB010111F4801F08BF013CF7D041EA61
:1007D000060195F0000F18BF704703F00046520065
:1007E00043EB030313F4801F08BF013DF7D043EA36
:1007F0000603704794EA0C0F0CEA135518BF95EAEC
:100800000C0F0CD050EA410618BF52EA4306D1D172
:1008100081EA030101F000414FF0000070BD50EA91
:10082000410606BF1046194652EA430619D094EA1B
:100830000C0F02D150EA013613D195EA0C0F05D105
:1008400052EA03361CBF104619460AD181EA030159
:1008500001F0004141F0FE4141F470014FF0000011
:1008600070BD41F0FE4141F4780170BD70B54FF0AC
:10087000FF0C4CF4E06C1CEA11541DBF1CEA13552C
:1008800094EA0C0F95EA0C0F00F0A7F8A4EB05040E
:1008900081EA030E52EA03354FEA013100F0888005
:1008A0004FEA03334FF0805545EA131343EA1263CE
:1008B0004FEA022245EA111545EA10654FEA002683
:1008C0000EF000419D4208BF964244F1FD0404F53C
:1008D000407402D25B084FEA3202B61A65EB030598
:1008E0005B084FEA32024FF480104FF4002CB6EB55
:1008F000020E75EB030E22BFB61A754640EA0C00D5
:100900005B084FEA3202B6EB020E75EB030E22BF14
:10091000B61A754640EA5C005B084FEA3202B6EB55
:10092000020E75EB030E22BFB61A754640EA9C0014
:100930005B084FEA3202B6EB020E75EB030E22BFE4
:10094000B61A754640EADC0055EA060E18D04FEAA2
:10095000051545EA16754FEA06164FEAC30343EA42
:1009600052734FEAC2025FEA1C1CC0D111F4801F0F
:100970000BD141EA00014FF000004FF0004CB6E708
:1009800011F4801F04BF01430020B4F1FD0C88BFA7
:10099000BCF5E06F3FF6AFAEB5EB030C04BFB6EBB2
:1009A000020C5FEA500C50F1000041EB045170BDA5
:1009B0000EF0004E4EEA113114EB5C04C2BFD4EBD2
:1009C0000C0541EA045170BD41F480114FF0000E56
:1009D000013C90E645EA060E8DE60CEA135594EAD2
:1009E0000C0F08BF95EA0C0F3FF43BAF94EA0C0FD5
:1009F0000AD150EA01347FF434AF95EA0C0F7FF44A
:100A000025AF104619462CE795EA0C0F06D152EA9D
:100A100003353FF4FDAE1046194622E750EA410681
:100A200018BF52EA43067FF4C5AE50EA41047FF492
:100A30000DAF52EA43057FF4EBAE12E74FF0FF3CF7
:100A400006E000BF4FF0010C02E000BF4FF0010CC8
:100A50004DF804CD4FEA410C7FEA6C5C4FEA430C41
:100A600018BF7FEA6C5C1BD001B050EA410C0CBF90
:100A700052EA430C91EA030F02BF90EA020F0020F2
:100A8000704710F1000F91EA030F58BF994208BF59
:100A900090422CBFD8176FEAE37040F00100704716
:100AA0004FEA410C7FEA6C5C02D150EA013C07D16D
:100AB0004FEA430C7FEA6C5CD6D152EA033CD3D0B8
:100AC0005DF8040B704700BF8446104662468C46B2
:100AD0001946634600E000BF01B5FFF7B7FF0028E5
:100AE00048BF10F1000F01BD4DF808EDFFF7F4FF0E
:100AF0000CBF012000205DF808FB00BF4DF808ED99
:100B0000FFF7EAFF34BF012000205DF808FB00BFBB
:100B10004DF808EDFFF7E0FF94BF012000205DF8DD
:100B200008FB00BF4DF808EDFFF7CEFF94BF012092
:100B300000205DF808FB00BF4DF808EDFFF7C4FF8B
:100B400034BF012000205DF808FB00BF4FEA410CD4
:100B50007FEA6C5C02D150EA013C0AD14FEA430CB7
:100B60007FEA6C5C02D152EA033C02D14FF00000F4
:100B700070474FF0010070474FEA410212F5001232
:100B800015D211D56FF47873B3EB625212D94FEAD4
:100B9000C12343F0004343EA505311F0004F23FABE
:100BA00002F018BF404270474FF00000704750EA13
:100BB000013005D111F0004008BF6FF000407047D0
:100BC0004FF00000704700BF80B500AF114B01220D
:100BD0001A70114B00221A70104B00221A60104B31
:100BE00000221A600F4B00221A600F4B00221A607D
:100BF0000E4B00221A6001224FF480410C4802F093
:100C00003DFC0C4B1B6800225A620A4806F0D8FDD6
:100C100000BF80BDC0050020C1050020C405002024
:100C2000C8050020CC050020D0050020D4050020F8
:100C300000100048E404002080B582B000AF786066
:100C40007B681B681D4A93421FD11D4B1B78DBB28A
:100C5000002B2FD01B4B1B6801331A4A1360194B12
:100C60001B6840F66432934224D9154B00221A7057
:100C7000154B01221A70154806F00CFE00224FF4A5
:100C80008041134802F0FAFB14E07B681B68B3F163
:100C9000804F0FD10F4B1B78DBB20133DBB20D4A13
:100CA00019461170632B05D90B4B01221A70094BA1
:100CB00000221A7000BF0837BD4680BD0004004006
:100CC000C0050020C4050020C1050020E404002068
:100CD000001000488A1600208916002080B483B0D6
:100CE00000AF00237B6000237B6003E000BF7B68D4
:100CF00001337B607B68B3F5167FF7D300BF00BF7D
:100D00000C37BD465DF8047B7047000080B586B0A7
:100D100002AF0346FB71FB7963F07F03FB71FB7944
:100D20009BB2FB8100220821154802F0A7FBFFF7C8
:100D3000D5FF07F10C0207F10E01022300930123F6
:100D4000104806F006F9FFF7C9FF07F10E0101315F
:100D500007F10C020132022300930123094806F037
:100D6000F8F801220821064802F088FBFFF7B6FFD9
:100D7000BB891B0A9BB2DBB218461037BD4680BD4B
:100D8000001000483404002080B584B000AF034652
:100D90000A46FB711346BB71FB791AB2BB791BB2D1
:100DA0001B021BB213431BB29BB2FB810022082122
:100DB000104802F063FBFFF791FF07F10E010223D9
:100DC00001220D4805F019FEFFF788FF07F10E011B
:100DD000013102230122084805F00FFE01220821FB
:100DE000044802F04BFBFFF779FF00BF1037BD4608
:100DF00080BD00BF001000483404002080B582B0E0
:100E000000AF03463960FB711346BB71FB7963F099
:100E10003F03DBB2FB71002208210F4802F02EFBDA
:100E2000FFF75CFFF91D0A2301220C4805F0E5FDE0
:100E3000FFF754FFBB799AB2BB793968074805F0D0
:100E400051FF01220821044802F018FBFFF746FF7A
:100E500000BF0837BD4680BD0010004834040020A4
:100E600080B582B000AF0F20FFF750FF0346FB7143
:100E7000FB79D42B04D0FB79D32B01D000BFFDE745
:100E80004F212020FFF780FF08212220FFF77CFF61
:100E900010212320FFF778FF00BF0837BD4680BD33
:100EA00080B483B000AF0346FB80FB88022B02D1E5
:100EB000044B01221A7000BF0C37BD465DF8047B5D
:100EC000704700BFB805002080B582B000AF7860E1
:100ED00000BF7868FFF7DCF903469BB219467868D3
:100EE0000CF09CFB0346012BF3D000BF00BF08377A
:100EF000BD4680BD80B400AF054B00221A60054B93
:100F000000221A7000BFBD465DF8047B704700BF29
:100F1000841600208406002090B5C9B000AF07F504
:100F20009074A4F58A74206007F59070A0F58C7019
:100F3000016007F59071A1F58E710A6007F5907256
:100F4000A2F590721360D7F83C31002B03D0D7F88C
:100F50003C3100221A60FFF7CDFF07F59073A3F52F
:100F60008C7307F110001B685E4A4FF480710DF01E
:100F700077FC07F110031846FFF78AF903469AB287
:100F800007F1100107F59073A3F58A704FF47A7397
:100F9000006807F0C3F801F039FFC7F8180139E01D
:100FA000514B1B68C7F81C31D7F81C31B3F5805F73
:100FB00003D340F6FF73C7F81C314C4AD7F81C31F5
:100FC000134400221A7007F59073A3F58E731B6803
:100FD000002B0AD007F59073A3F58E731968434868
:100FE0000DF04AFD0346002B4BD107F59073A3F596
:100FF00090731B68002B0AD007F59073A3F59073CC
:1010000019683A480DF038FD0346002B0DD1012038
:1010100001F008FF01F0FAFE0246D7F81831D31AA2
:10102000D7F830219A42BBD800E000BFD7F834315E
:10103000002B24D0D7F83831002B20D0D7F8383106
:101040005A1E294B1B68934228BF1346C7F810311C
:10105000D7F810212549D7F834010DF09AFDD7F8BB
:101060003421D7F81031134400221A70D7F83C31DC
:10107000002B04D0D7F83C31D7F810211A60002398
:101080002AE000BFD7F83431002B24D0D7F838310C
:10109000002B20D0D7F838315A1E134B1B689342CF
:1010A00028BF1346C7F81431D7F814210F49D7F8D1
:1010B00034010DF06EFDD7F83421D7F81431134404
:1010C00000221A70D7F83C31002B04D0D7F83C31FD
:1010D000D7F814211A600123184607F59277BD4608
:1010E00090BD00BF40150108841600208406002032
:1010F00080B500AFFFF7FEFE01220349034807F069
:1011000096F800BF80BD00BF881600203005002083
:1011100080B5ADF5487D04AF07F54473A3F543737F
:10112000186007F54473A3F5447319600023C7F8EA
:101130000C331CE007F5847303934FF400730293A0
:1011400007F5867301934FF4FA730093484B494AAD
:1011500049494A48FFF7E0FE0346002B0DD1C8205D
:1011600001F060FED7F80C330133C7F80C33D7F821
:101170000C33042BDEDD012374E000BF07F584731C
:1011800003934FF40073029307F5867301934FF4B2
:10119000FA730093364B374A39493848FFF7BCFE9B
:1011A00007F5847303934FF40073029307F5867376
:1011B00001934FF47A7300932D4B2E4A31492F48F7
:1011C000FFF7AAFE034683F00103DBB2002B01D038
:1011D000022347E007F54473A3F5437307F10800C2
:1011E00007F54472A2F54472126800921B68264A01
:1011F0004FF480710DF034FB07F1080107F584739B
:1012000003934FF40073029307F58673019343F63B
:10121000982300931D4B174A1848FFF77DFE03469D
:1012200083F00103DBB2002B01D003231AE007F5A2
:10123000847303934FF40073029307F5867301934D
:1012400040F6B83300930A4B114A12490B48FFF796
:1012500063FE034683F00103DBB2002B01D00423BD
:1012600000E00023184607F54477BD4680BD00BF67
:1012700048150108501501085415010830050020D3
:1012800058150108601501086C1501088015010842
:10129000881501089015010880B58EB000AFFFF7E2
:1012A00029FE4FF47A730A222F49304806F036FFA0
:1012B00001F0ACFDF86245E02D4B1B687B637B6B56
:1012C000B3F5805F02D340F6FF737B63294A7B6BE3
:1012D000134400221A70284926480DF0CDFBB8624D
:1012E000BB6A002B2BD0BB6A0733BB622221B86AD2
:1012F0000DF065FB78627B6A002B20D07A6ABB6AAE
:101300009A421CD97A6ABB6AD31A3B633B6B1F2B88
:1013100001DD1F233B633A6B3B1DB96A18460DF094
:1013200038FC3A1D3B6B134400221A703B1D1846D3
:10133000FFF7CAFD1148FFF7C7FD01230FE00120A9
:1013400001F070FD01F062FD0246FB6AD31A40F61F
:10135000B7329342B0D90A48FFF7B6FD00231846CA
:101360003837BD4680BD00BF9C1501083005002000
:101370008416002084060020A8150108B015010875
:10138000B415010880B5C6B004AF4148FFF79CFD15
:101390003B1D03934FF48073029307F108030193FD
:1013A0004FF47A7300933B4B3B4A3C493C48FFF770
:1013B000B3FD3B1D03934FF48073029307F10803C1
:1013C00001934FF47A730093324B334A35493448D2
:1013D000FFF7A2FD3B1D03934FF48073029307F1C7
:1013E000080301934FF47A7300932A4B2A4A2E493B
:1013F0002B48FFF791FD3B1D03934FF4807302933D
:1014000007F1080301934FF47A730093214B224AAA
:1014100026492348FFF780FD3B1D03934FF480735B
:10142000029307F1080301934FF47A730093194B69
:10143000194A1F491A48FFF76FFD3B1D03934FF4EC
:101440008073029307F1080301934FF47A730093BA
:10145000104B114A17491248FFF75EFD3B1D0393DD
:101460004FF48073029307F1080301934FF47A73EA
:101470000093084B084A10490948FFF74DFD0F48F3
:10148000FFF722FD00BF07F58477BD4680BD00BF92
:10149000D01501084815010850150108EC15010880
:1014A00030050020FC15010810160108201601085F
:1014B00030160108401601084C1601086016010894
:1014C00080B582B000AF78607B68104A934218D133
:1014D0000F4B1B6840F6FE7293420DD80C4B1B68F5
:1014E0005A1C0B490A600B4A11780B4AD154084B1D
:1014F0001B68094A0021D15401220649034806F01D
:1015000096FE00BF0837BD4680BD00BF30050020F5
:1015100084160020881600208406002080B584B040
:1015200000AF7860396001F071FCF8600BE0796819
:101530000B480DF0A1FA0346002B01D001230BE06C
:10154000012001F06FFC01F061FC0246FB68D31A38
:101550003A689A42EBD8002318461037BD4680BD42
:101560008406002080B5AEB002AF03463960FB713F
:10157000324933480DF080FA0346002B01D0002396
:1015800057E03868FEF784FE0346C7F8AC30FFF733
:10159000B1FCFA7907F16C00D7F8AC300093134630
:1015A000284A40210DF05CF907F16C0307F10C00AB
:1015B000254A60210DF054F907F10C031846FEF797
:1015C00067FE03469AB207F10C014FF47A731F4885
:1015D00006F0A4FD4FF4FA611D48FFF79FFF034694
:1015E00083F00103DBB2002B0AD01A48FFF76CFC32
:1015F0001348FFF769FC1848FFF766FC002318E062
:10160000FFF778FCD7F8AC309AB24FF4FA63396838
:101610000E4806F083FD40F6B8311048FFF77EFF14
:10162000034683F00103DBB2002B01D0002300E06E
:1016300001231846B037BD4680BD00BF80160108A3
:101640008406002088160108401501083005002096
:101650009C160108A0160108B0150108B016010873
:1016600080B5ADF5AA6D02AFAE49AF480DF004FAF2
:10167000C7F83C05D7F83C35002B00F04D814FF002
:10168000FF33C7F8243507F224531A46A749D7F881
:101690003C050DF01BF90346012B02D0FFF72AFC95
:1016A0003BE1D7F82435002B07DBD7F82435032B93
:1016B00003DC4FF4487000F04BFCD7F82435042BC2
:1016C00002D1FFF717FC28E19949D7F83C050DF046
:1016D000D3F90346002B00F0BC809648FFF7F4FBDB
:1016E000D7F83C05FFF7F0FB9348FFF7EDFB904977
:1016F000D7F83C050DF0C0F9C7F83005D7F83035FC
:101700000933C7F830358D49D7F830050DF0B4F9F5
:10171000C7F84405D7F84435002B06D12021D7F867
:1017200030050DF04CF9C7F84405D7F84435002BC7
:1017300003D18348FFF7C8FBEFE0D7F84425D7F87B
:101740003035D31AC7F84035D7F84035002B02DAC8
:101750000023C7F84035D7F84035FF2B02DDFF23C3
:10176000C7F84035D7F8402507F12403D7F83015DE
:1017700018460DF00EFA07F5A963A3F22452D7F824
:101780004035134400221A706E48FFF79DFB07F1A5
:1017900024031846FFF798FB6748FFF795FB07F10E
:1017A0002403184600F0E8F86748FFF78DFB674808
:1017B000FFF78AFB6048FFF787FB6548FFF784FB6C
:1017C0006448FFF781FB5C48FFF77EFB624B012218
:1017D0001A70624B00221A70614BC7F82C35D7F88B
:1017E0002C05FEF755FD0346C7F8283507F592701E
:1017F000D7F82C350093D7F828355A4A4FF4806132
:101800000DF02EF8FFF776FBD7F82435DBB207F59D
:10181000927211461846FFF7A5FEFFF76BFBD7F84B
:101820002435381D504A20210DF01AF83B1D18466A
:10183000FEF72EFD03469AB2391D4FF47A734B48DA
:1018400006F06CFCFFF756FB4FF4487000F080FB8D
:1018500063E04749D7F83C050DF00EF90346002B2D
:101860003FD0444BC7F83835D7F83805FEF710FDA0
:101870000346C7F8343507F59270D7F8383500932A
:10188000D7F83435374A4FF480610CF0E9FFFFF7A1
:1018900031FBD7F82435DBB207F5927211461846B2
:1018A000FFF760FEFFF726FBD7F8243507F1240089
:1018B0002D4A20210CF0D4FF07F124031846FEF72F
:1018C000E7FC03469AB207F124014FF47A732748E4
:1018D00006F024FCFFF70EFB4FF4487000F038FBD5
:1018E0001BE0FFF707FBD7F8243507F592701E4A77
:1018F00020210CF0B5FF07F592731846FEF7C8FCDF
:1019000003469AB207F592714FF47A73174806F0BE
:1019100005FCFFF7EFFA00E000BF07F5A967BD4639
:1019200080BD00BF8016010884060020B81601089B
:10193000C4160108D0160108B0150108D816010810
:10194000E0160108FC160108081701080000002035
:1019500014170108400000208306002082060020A2
:101960002017010870170108C8170108300500206A
:10197000DC170108E817010880B584B000AF786073
:101980000023BB6007F108031A461E4978680DF072
:1019900070F8F8602EE005221B49F8680DF01CF87D
:1019A0000346002B0BD1FB6805333F22194617482D
:1019B0000DF024F8154B002283F83F2012E0052299
:1019C0001349F8680DF008F80346002B0AD1FB68AC
:1019D00005333F2219460F480DF010F80D4B002239
:1019E00083F83F2007F108031A46064900200DF04E
:1019F00040F8F860FB68002BCDD100BF00BF103766
:101A0000BD4680BDC4180108C818010800000020A8
:101A1000D01801084000002080B584B000AF786085
:101A200001F0F4F9F86045E029492A480DF024F85E
:101A30000346002B02D04FF0FF3344E026492548EF
:101A40000DF01AF80346002B02D04FF0FF333AE0B6
:101A5000224920480DF010F80346002B02D04FF029
:101A6000FF3330E01E491B480DF006F80346002BFB
:101A700002D04FF0FF3326E01A4916480CF0FCFF65
:101A80000346002B01D001231DE0174911480CF03B
:101A9000F3FF0346002B01D0012314E013490D4846
:101AA0000CF0EAFF0346002B01D001230BE00120DC
:101AB00001F0B8F901F0AAF90246FB68D31A7A6876
:101AC0009A42B1D8002318461037BD4680BD00BFEA
:101AD000481501088406002080150108D81801085F
:101AE000E0180108E8180108FC1801085015010861
:101AF00080B5A6B002AF03463960FB711346BB80C8
:101B0000FFF7F8F907F10C03294A802118460CF079
:101B1000A7FE07F10C031846FEF7BAFB03469AB27C
:101B200007F10C014FF47A73224806F0F7FA3220DD
:101B300001F078F9204921480CF09EFF0346002B64
:101B400006D11F491D480CF097FF0346002B01D01A
:101B5000012328E0FFF7CEF9FA79BB8807F10C00E2
:101B600001933B6800931346164A80210CF078FEDF
:101B700007F10C031846FEF78BFB03469AB207F1F8
:101B80000C0140F6B8330B4806F0C8FA4FF4FA508F
:101B9000FFF742FFC7F88C00D7F88C30002BCCBF82
:101BA00001230023DBB218469037BD4680BD00BF3D
:101BB00004190108300500201419010884060020CA
:101BC000201901082C19010890B5ADF54B7D04AF23
:101BD000044607F54670A0F544700160114607F50C
:101BE0004672A2F54572136007F54673A3F20933F6
:101BF00022461A7007F54673A3F543730A461A8006
:101C0000D7F82803FEF744FB0346C7F8143307F55B
:101C10004673A3F5457307F11000D7F82823029205
:101C2000D7F81423019207F54672A2F544721268A0
:101C300000921B68174A4FF440710CF011FEC7F870
:101C40001003D7F81033002B04DDD7F81033B3F5A9
:101C5000407F01DB002318E007F1100207F546730F
:101C6000A3F209331B7811461846FFF77BFC0346A5
:101C700083F00103DBB2002B01D0002305E04FF419
:101C8000FA710548FFF74AFC0123184607F5477724
:101C9000BD4690BD4C190108BC1901082DE9F0435F
:101CA0008BB006AF944B00221A700622934928206D
:101CB000FFF7A4F8924B1B78DBB2002B20D08F4BA0
:101CC000B3F900301A468F4B1B6813448D4A1360DA
:101CD0008A4BB3F902301A468B4B1B6813448A4A6D
:101CE0001360864BB3F904301A46884B1B681344C3
:101CF000864A1360864B1B680133854A1360F6E001
:101D0000844B1B78DBB2002B3DD0834B1B78002B20
:101D100039D17F4B1B68002B35D07A4B1B6807EEFF
:101D2000903AF8EEE76A7A4B1B6807EE903AB8EE05
:101D3000677AC6EE877A794BC3ED007A724B1B68DF
:101D400007EE903AF8EEE76A714B1B6807EE903A9F
:101D5000B8EE677AC6EE877A714BC3ED007A6B4BAB
:101D60001B6807EE903AF8EEE76A694B1B6807EECE
:101D7000903AB8EE677AC6EE877A6A4BC3ED007A7E
:101D8000654B01221A70644B1B78002B00F0AF806A
:101D90005A4BB3F9003007EE903AB8EEE77A5F4B52
:101DA000D3ED007A77EE677A9FED5F7A67EE877AF8
:101DB000C7ED037A514BB3F9023007EE903AB8EE13
:101DC000E77A574BD3ED007A77EE677A9FED567A34
:101DD00067EE877AC7ED027A484BB3F9043007EE15
:101DE000903AB8EEE77A4F4BD3ED007A77EE677A08
:101DF0009FED4D7A67EE877AC7ED017A4B4B1B78E2
:101E0000002B0CD14A4AFB6813604A4ABB68136036
:101E1000494A7B681360454B01221A703BE0444BF2
:101E2000D3ED007A97ED037A37EE677A434BD3ED23
:101E3000007A27EE277A3E4BD3ED007A77EE277AA9
:101E40003B4BC3ED007A3B4BD3ED007A97ED027A22
:101E500037EE677A394BD3ED007A27EE277A354B88
:101E6000D3ED007A77EE277A324BC3ED007A324B0E
:101E7000D3ED007A97ED017A37EE677A2F4BD3EDE9
:101E8000007A27EE277A2C4BD3ED007A77EE277A6B
:101E9000294BC3ED007A2A4B1E68731C284A136035
:101EA000234B1B681846FEF75FFB04460D46214B8B
:101EB0001B681846FEF758FB804689461E4B1B6878
:101EC0001846FEF751FB02460B46CDE90423CDE947
:101ED0000289CDE9004533461A4A80211A480CF0A0
:101EE000BFFC38604FF40071184801F0DFFA00BF02
:101EF0001437BD46BDE8F083B8050020F805002082
:101F0000C0050020C8050020CC050020D005002019
:101F1000D4050020C105002080060020D80500203F
:101F2000DC050020E0050020295C8F3CF005002046
:101F3000E4050020E8050020EC050020F405002061
:101F4000BC050020C8190108000600200010004848
:101F500080B582B000AF7860064B01221A7000F0A5
:101F600055FF02467B681344034A136000BF0837DD
:101F7000BD4680BD8D1600209016002080B500AFB4
:101F80000C4B1B78DBB2002B0AD000F03FFF02465F
:101F9000094B1B68D31A002B02DB064B00221A7078
:101FA000044B1B78DBB2002B0CBF01230023DBB2F8
:101FB000184680BD8D1600209016002080B592B086
:101FC00004AF00F0C9FE00F0D9F900F093FB00F077
:101FD00037FA00F075FA0BF0F9F900F005FB00F0A4
:101FE000ADFA00F057FBFFF783F8964B1B681A68B1
:101FF000944B1B6842F040021A600122082192486B
:1020000001F03CFAFEF72CFF904BFB62904BBB6259
:1020100097ED0A7AD7ED0B7A37EE277AD7ED0B6A70
:10202000C6EE877A8B4BC3ED007A012387F83730F1
:10203000012387F82730012387F83630864B1B7839
:10204000DBB2002B0FD0854B1B78DBB2002B0AD004
:1020500097F83630002B04D0FEF7B6FD002387F842
:102060003630FFF71BFE97F82730002BE6D07B4B6E
:102070001B78DBB2002B4BD0794B1B78002B47D160
:10208000784B1B78002B43D17748FEF71DFF77492B
:102090007748FFF73DF8034687F8263097F8263053
:1020A000002B05D1FFF7F8F86D4B01221A702BE0D9
:1020B0007048FEF709FF97F82630013B032B1BD829
:1020C00001A252F823F000BFD9200008E120000847
:1020D000E9200008F12000086748FEF7F5FE0FE050
:1020E0006648FEF7F1FE0BE06548FEF7EDFE07E0FF
:1020F0006448FEF7E9FE03E06348FEF7E5FE00BF33
:102100004FF4FA6000F08EFE6048FEF7DDFE02E05C
:10211000012000F087FE524B1B78002B08D05C4B4F
:102120001B78002B04D1FFF72DF9594B01221A70AF
:10213000574B1B78002B64D0564B1B78DBB2002B1F
:1021400001D1FFF78DFA97F83730002B08D05248AD
:1021500005F036FB5148FEF7B7FE002387F837300D
:102160004F4B1B78DBB2002B4BD04D4B00221A702B
:10217000FFF704FF0346002B00F0EC80454B0122E3
:102180001A70484B1B78DBB2002B15D14648FEF77E
:102190009BFE40F2BB1245490420FFF7A9FC034611
:1021A0001A46404B1A703F4B1B78DBB2002B03D111
:1021B000384B00221A70CEE03D4B00933D4B40F26D
:1021C000BB123A490420FFF7FFFC034687F825308D
:1021D00097F8253083F00103DBB2002B0ED0364890
:1021E000FEF772FE2F4B00221A70FEF783FE4FF4AB
:1021F0007A730E223149324805F090FF254B0022B8
:102200001A70184B1B78002B00F0A080224805F0B4
:1022100041FB012387F837302A48FEF755FE00239B
:10222000039300230293002301934FF47A730093E6
:10223000254B264A26492248FEF76EFE00233B63C3
:1022400062E000BF34040020001000489276AC3BEE
:102250003761023CF4050020B80500206419002015
:1022600081060020830600200C1A0108400000208F
:1022700000000020281A01083C1A0108501A010821
:102280006C1A0108801A0108981A0108A81A010896
:10229000820600208B16002098040020C41A010832
:1022A000891600208C160020D81A0108E41A0108AB
:1022B000000600200C1B01081C1B0108241B010840
:1022C00030050020341B010848150108501501088D
:1022D00030160108FEF70EFE381D3B6B1E4A20210A
:1022E0000CF0BEFA3B1D1846FDF7D2FF03469AB22A
:1022F000391D4FF4FA73194805F010FF142000F04F
:1023000091FD3B6B01333B633B6B042BE2DD002310
:10231000039300230293002301934FF47A730093F5
:102320000F4B104A10490D48FEF7F6FD0F4B0022E7
:102330001A700F4B00221A700E4B00221A700E4BAF
:1023400000221A704FF4FA7000F06CFD012000F0CA
:1023500069FD73E600BF71E6C8170108300500206B
:1023600048150108501501084C1B01088106002082
:1023700082060020830600208C16002080B59EB0C7
:1023800000AF07F150032822002118460CF00FFB84
:1023900007F13C0300221A605A609A60DA601A6101
:1023A0003B463C22002118460CF001FB03233B6511
:1023B0004FF4A0237B650023BB6501233B661023FC
:1023C0007B660223FB664FF480333B674FF4E013D8
:1023D0007B6707F15003184602F096FE0346002B78
:1023E00001D000F029FA0F23FB6302233B64002392
:1023F0007B644FF48063BB640023FB6407F13C0300
:102400000221184603F08EFE0346002B01D000F097
:1024100013FA0A4B3B6000233B610023FB6100235E
:10242000BB633B46184604F08FF80346002B01D0EF
:1024300000F002FA00BF7837BD4680BD24000200DC
:1024400080B500AF1B4B1C4A1A601A4B1B4A5A60DE
:10245000184B00229A60174B0122DA60154B0022BC
:102460001A61144B00225A61124B00229A61114BDF
:102470000022DA610F4B00221A620E4801F048F880
:102480000346002B01D000F0D7F90021094801F0E4
:10249000DAF80346002B01D000F0CEF90021054800
:1024A00001F01CF90346002B01D000F0C5F900BF74
:1024B00080BD00BFE0030020005400402B1D200021
:1024C00080B500AF1B4B1C4A1A601A4B4FF4827246
:1024D0005A60184B00229A60164B4FF4E062DA60A3
:1024E000144B02221A61134B01225A61114B4FF413
:1024F00000729A610F4B1022DA610E4B00221A62B1
:102500000C4B00225A620B4B00229A62094B0722A5
:10251000DA62084B00221A63064B00225A63054810
:1025200004F0C0F90346002B01D000F085F900BF8C
:1025300080BD00BF340400200030014080B588B069
:1025400000AF07F1100300221A605A609A60DA6047
:102550003B1D00221A605A609A60224B4FF0804265
:102560001A60204B40F257225A601E4B00229A609C
:102570001C4B7722DA601B4B00221A61194B002298
:102580009A61184805F0C4F80346002B01D000F00A
:1025900053F94FF480533B6107F11003194611487A
:1025A00005F0A9FA0346002B01D000F045F90023FD
:1025B0007B600023FB603B1D19460A4805F0C2FC06
:1025C0000346002B01D000F037F9002202211C2025
:1025D00000F027FD1C2000F040FD00BF2037BD4665
:1025E00080BD00BF9804002080B588B000AF07F11F
:1025F000100300221A605A609A60DA603B1D0022C4
:102600001A605A609A60214B214A1A601F4B40F2AF
:1026100057225A601D4B00229A601C4B7722DA60C9
:102620001A4B00221A61194B00229A61174805F0D3
:102630006FF80346002B01D000F0FEF84FF48053F2
:102640003B6107F110031946104805F054FA0346A0
:10265000002B01D000F0F0F800237B600023FB602A
:102660003B1D1946094805F06DFC0346002B01D0BF
:1026700000F0E2F8002201211D2000F0D2FC1D2014
:1026800000F0EBFC00BF2037BD4680BDE404002015
:102690000004004080B500AF144B154A1A60134B7C
:1026A0004FF4E1325A60114B00229A600F4B002226
:1026B000DA600E4B00221A610C4B0C225A610B4B54
:1026C0004FF440729A61094B0022DA61074B0022F5
:1026D0001A62064B00225A62044805F0D1FC0346F8
:1026E000002B01D000F0A8F800BF80BD300500200D
:1026F0000048004080B58AB000AF07F11403002203
:102700001A605A609A60DA601A61494B5B69484AFC
:1027100043F400135361464B5B6903F400133B61C0
:102720003B69434B5B69424A43F400235361404B8E
:102730005B6903F40023FB60FB683D4B5B693C4A2B
:1027400043F4800353613A4B5B6903F48003BB603D
:10275000BB68374B5B69364A43F400335361344BF3
:102760005B6903F400337B607B68314B5B69304A03
:1027700043F4802353612E4B5B6903F480233B6059
:102780003B6800224FF608712A4800F077FE372395
:102790007B614FF49013BB610023FB6107F11403CD
:1027A0001946244800F0F0FC02237B614FF48813A3
:1027B000BB610023FB6107F1140319461D4800F0BB
:1027C000E3FC08237B610123BB610023FB6103233E
:1027D0003B6207F114031946164800F0D5FC0123AB
:1027E0007B610023BB610023FB6107F114031946E1
:1027F0004FF0904000F0C8FC4FF47F437B61012311
:10280000BB610023FB6100233B6207F114031946FF
:10281000084800F0B9FC00220021072000F001FC6C
:10282000072000F01AFC00BF2837BD4680BD00BF5E
:10283000001002400010004880B400AF72B600BF24
:1028400000BFFDE780B582B000AF0F4B9B690E4A19
:1028500043F0010393610C4B9B6903F001037B6020
:102860007B68094BDB69084A43F08053D361064B10
:10287000DB6903F080533B603B68072000F0C6FB38
:1028800000BF0837BD4680BD0010024080B58AB049
:1028900000AF786007F1140300221A605A609A6052
:1028A000DA601A617B681B68174A934227D1174B7D
:1028B0005B69164A43F480235361144B5B6903F44C
:1028C00080233B613B69C0237B611223BB610123F1
:1028D000FB6103233B6204237B6207F11403194667
:1028E0000B4800F051FC094BDB69084A43F4001324
:1028F000D361064BDB6903F40013FB60FB6800BF88
:102900002837BD4680BD00BF005400400010024083
:102910000004004880B58AB000AF786007F1140366
:1029200000221A605A609A60DA601A617B681B683C
:10293000174A934228D1174B9B69164A43F4805398
:102940009361144B9B6903F480533B613B69114BCA
:102950005B69104A43F4003353610E4B5B6903F427
:102960000033FB60FB68E0237B610223BB61002333
:10297000FB6103233B6205237B6207F114031946C5
:102980004FF0904000F000FC00BF2837BD4680BDEE
:10299000003001400010024080B485B000AF786084
:1029A0007B681B68B3F1804F0CD1124BDB69114A75
:1029B00043F00103D3610F4BDB6903F00103FB60BC
:1029C000FB6810E07B681B680B4A93420BD1094BF4
:1029D000DB69084A43F00203D361064BDB6903F06D
:1029E0000203BB60BB6800BF1437BD465DF8047BC3
:1029F000704700BF001002400004004080B58AB05C
:102A000000AF786007F1140300221A605A609A60E0
:102A1000DA601A617B681B681B4A934230D11B4BFA
:102A2000DB691A4A43F48023D361184BDB6903F452
:102A300080233B613B69154B5B69144A43F4802357
:102A40005361124B5B6903F48023FB60FB684FF416
:102A5000D8437B610223BB610023FB6103233B62FC
:102A600007237B6207F114031946094800F08CFB29
:102A700000220021272000F0D4FA272000F0EDFAF0
:102A800000BF2837BD4680BD00480040001002400E
:102A90000004004880B400AF00BFFDE780B400AF81
:102AA00000BFFDE780B400AF00BFFDE780B400AF1A
:102AB00000BFFDE780B400AF00BFFDE780B400AF0A
:102AC00000BFBD465DF8047B704780B400AF00BF17
:102AD000BD465DF8047B704780B400AF00BFBD46C3
:102AE0005DF8047B704780B500AF00F07BF900BF54
:102AF00080BD000080B500AF024800F028FF00BF95
:102B000080BD00BFD023002080B500AF024805F093
:102B1000D3FB00BF80BD00BF3005002080B500AFF3
:102B2000022000F0DDFC00BF80BD000080B500AFDA
:102B3000024804F0DEFE00BF80BD00BFE4040020B8
:102B400080B500AF024804F0D4FE00BF80BD00BFD6
:102B50009804002080B400AF01231846BD465DF8FC
:102B6000047B704780B582B000AF786039600BF0AD
:102B7000E3FF034616221A604FF0FF33184608376A
:102B8000BD4680BD80B582B000AF78604FF0FF31A8
:102B90007868FFF7E7FF00BFFDE780B586B000AFBC
:102BA000F860B9607A6000237B610AE0AFF30080CF
:102BB0000146BB685A1CBA60CAB21A707B690133FD
:102BC0007B617A697B689A42F0DB7B68184618372C
:102BD000BD4680BD80B586B000AFF860B9607A6050
:102BE00000237B6109E0BB685A1CBA601B78184659
:102BF000AFF300807B6901337B617A697B689A421D
:102C0000F1DB7B6818461837BD4680BD80B483B0C1
:102C100000AF78604FF0FF3318460C37BD465DF8C3
:102C2000047B704780B483B000AF786039603B6844
:102C30004FF400525A60002318460C37BD465DF829
:102C4000047B704780B483B000AF786001231846DE
:102C50000C37BD465DF8047B704780B485B000AF8B
:102C6000F860B9607A60002318461437BD465DF8F5
:102C7000047B704780B586B000AF7860144A154B6E
:102C8000D31A7B617B693B61134B1B68002B02D11C
:102C9000114B124A1A60104B1A687B6813443A6948
:102CA0009A4207D20BF048FF03460C221A604FF0FD
:102CB000FF3309E0084B1B68FB60074B1A687B6811
:102CC0001344054A1360FB6818461837BD4680BD9B
:102CD00000A000200004000094160020102A00200C
:102CE00080B400AF064BD3F88830054A43F4700334
:102CF000C2F8883000BFBD465DF8047B704700BF56
:102D000000ED00E0DFF834D0FFF7EAFF0C480D4992
:102D10000D4A002302E0D458C4500433C4188C4236
:102D2000F9D30A4A0A4C002301E013600432A2429C
:102D3000FBD30BF007FFFFF741F9FEE700A00020EF
:102D400000000020C4030020941F0108C4030020D9
:102D5000102A0020FEE7000080B500AF084B1B687A
:102D6000074A43F010031360032000F04FF90020DE
:102D700000F008F8FFF766FD0023184680BD00BF8D
:102D80000020024080B582B000AF7860124B1A6814
:102D9000124B1B7819464FF47A73B3FBF1F3B2FB75
:102DA000F3F3184600F067F90346002B01D0012326
:102DB0000EE07B680F2B0AD8002279684FF0FF30B5
:102DC00000F02FF9064A7B681360002300E001231E
:102DD00018460837BD4680BD8000002088000020CE
:102DE0008400002080B400AF064B1B781A46064BC7
:102DF0001B681344044A136000BFBD465DF8047BA2
:102E0000704700BF880000209816002080B400AFF3
:102E1000034B1B681846BD465DF8047B704700BF36
:102E20009816002080B584B000AF7860FFF7EEFF01
:102E3000B8607B68FB60FB68B3F1FF3F05D00A4BCD
:102E40001B781A46FB681344FB6000BFFFF7DEFFE8
:102E50000246BB68D31AFA689A42F7D800BF00BF8F
:102E60001037BD4680BD00BF8800002080B485B00B
:102E700000AF78607B6803F00703FB600C4BDB68F6
:102E8000BB60BA684FF6FF031340BB60FB681A02D1
:102E9000BB68134343F0BF6343F40033BB60044A91
:102EA000BB68D36000BF1437BD465DF8047B704734
:102EB00000ED00E080B400AF044BDB681B0A03F0B8
:102EC00007031846BD465DF8047B704700ED00E03F
:102ED00080B483B000AF0346FB7197F90730002B35
:102EE0000BDBFB7903F01F02074997F907305B09F9
:102EF000012000FA02F241F8232000BF0C37BD4642
:102F00005DF8047B704700BF00E100E080B483B04F
:102F100000AF03463960FB7197F90730002B0ADBDD
:102F20003B68DAB20C4997F907301201D2B20B4470
:102F300083F800230AE03B68DAB20849FB7903F022
:102F40000F03043B1201D2B20B441A7600BF0C37B8
:102F5000BD465DF8047B704700E100E000ED00E055
:102F600080B489B000AFF860B9607A60FB6803F0A4
:102F70000703FB61FB69C3F10703042B28BF04238C
:102F8000BB61FB690433062B02D9FB69033B00E0FC
:102F900000237B614FF0FF32BB6902FA03F3DA438F
:102FA000BB681A407B699A404FF0FF317B6901FA98
:102FB00003F3D9437B680B40134318462437BD46BF
:102FC0005DF8047B7047000080B582B000AF786088
:102FD0007B68013BB3F1807F01D301230FE00A4AF4
:102FE0007B68013B53600F214FF0FF30FFF78EFFEE
:102FF000054B00229A60044B07221A6000231846F2
:103000000837BD4680BD00BF10E000E080B582B04B
:1030100000AF78607868FFF729FF00BF0837BD462A
:1030200080BD80B586B000AF0346B9607A60FB739F
:1030300000237B61FFF73EFF78617A68B9687869A1
:10304000FFF78EFF024697F90F3011461846FFF73B
:103050005DFF00BF1837BD4680BD80B582B000AFB0
:103060000346FB7197F907301846FFF731FF00BFA1
:103070000837BD4680BD80B582B000AF7860786803
:10308000FFF7A2FF034618460837BD4680BD80B44F
:1030900083B000AF78607B68002B01D101232EE064
:1030A0007B6893F82130022B08D07B6804229A6356
:1030B0007B68002283F82020012320E07B681B68C6
:1030C0001A687B681B6822F00E021A607B681B6816
:1030D0001A687B681B6822F001021A607B681A6C10
:1030E0007B68DB6B012101FA02F25A607B680122E6
:1030F00083F821207B68002283F8202000231846D3
:103100000C37BD465DF8047B704780B584B000AFD6
:1031100078600023FB737B6893F82130022B05D085
:103120007B6804229A630123FB7327E07B681B689A
:103130001A687B681B6822F00E021A607B681B68A5
:103140001A687B681B6822F001021A607B681A6C9F
:103150007B68DB6B012101FA02F25A607B68012275
:1031600083F821207B68002283F820207B685B6B3A
:10317000002B03D07B685B6B78689847FB7B184615
:103180001037BD4680BD000080B487B000AF7860C6
:10319000396000237B6154E13B681A6801217B6937
:1031A00001FA03F31340FB60FB68002B00F046813B
:1031B0003B685B6803F00303012B05D03B685B6849
:1031C00003F00303022B30D17B689B683B617B6972
:1031D0005B00032202FA03F3DB433A6913403B61CD
:1031E0003B68DA687B695B0002FA03F33A691343D0
:1031F0003B617B683A699A607B685B683B6101224E
:103200007B6902FA03F3DB433A6913403B613B6895
:103210005B681B0903F001027B6902FA03F33A6958
:1032200013433B617B683A695A603B685B6803F013
:103230000303032B17D07B68DB683B617B695B0072
:10324000032202FA03F3DB433A6913403B613B6814
:103250009A687B695B0002FA03F33A6913433B61A6
:103260007B683A69DA603B685B6803F00303022B12
:1032700023D17B69DA087B68083253F822303B613E
:103280007B6903F007039B000F2202FA03F3DB4381
:103290003A6913403B613B681A697B6903F0070395
:1032A0009B0002FA03F33A6913433B617B69DA0836
:1032B0007B680832396943F822107B681B683B61E0
:1032C0007B695B00032202FA03F3DB433A69134094
:1032D0003B613B685B6803F003027B695B0002FAB9
:1032E00003F33A6913433B617B683A691A603B68B0
:1032F0005B6803F44033002B00F0A080584B9B69BF
:10330000574A43F001039361554B9B6903F0010356
:10331000BB60BB68534A7B699B08023352F8233079
:103320003B617B6903F003039B000F2202FA03F366
:10333000DB433A6913403B617B68B3F1904F19D08E
:103340007B68494A934213D07B68484A93420DD028
:103350007B68474A934207D07B68464A934201D133
:10336000042308E0052306E0032304E0022302E02F
:10337000012300E000237A6902F0030292009340E7
:103380003A6913433B6137497B699B0802333A69C9
:1033900041F82320384B9B683B61FB68DB433A696B
:1033A00013403B613B685B6803F48013002B03D040
:1033B0003A69FB6813433B612F4A3B6993602E4B8C
:1033C000DB683B61FB68DB433A6913403B613B6868
:1033D0005B6803F40013002B03D03A69FB681343C6
:1033E0003B61254A3B69D360234B5B683B61FB68CB
:1033F000DB433A6913403B613B685B6803F400338D
:10340000002B03D03A69FB6813433B611A4A3B69BE
:103410005360194B1B683B61FB68DB433A691340FF
:103420003B613B685B6803F48033002B03D03A694F
:10343000FB6813433B61104A3B6913607B690133AE
:103440007B613B681A687B6922FA03F3002B7FF4E7
:10345000A3AE00BF00BF1C37BD465DF8047B7047BC
:10346000001002400000014000040048000800482D
:10347000000C0048001000480004014080B483B0F4
:1034800000AF78600B467B8013467B707B78002B07
:1034900003D07A887B689A6102E07A887B689A62B6
:1034A00000BF0C37BD465DF8047B704780B485B023
:1034B00000AF78600B467B807B685B69FB607A8835
:1034C000FB6813401A04FB68D9437B880B401A43FE
:1034D0007B689A6100BF1437BD465DF8047B704776
:1034E00080B582B000AF0346FB80084B5A69FB8869
:1034F0001340002B06D0054AFB885361FB88184611
:10350000FDF7CEFC00BF0837BD4680BD000401407A
:1035100080B582B000AF78607B68002B01D10123B9
:103520008DE07B6893F84130DBB2002B06D17B68DD
:10353000002283F840207868FFF7A8F97B682422EE
:1035400083F841207B681B681A687B681B6822F03F
:1035500001021A607B685A687B681B6822F07062FF
:103560001A617B681B689A687B681B6822F40042BA
:103570009A607B68DB68012B07D17B689A687B685F
:103580001B6842F400429A6006E07B689A687B6898
:103590001B6842F404429A607B68DB68022B08D106
:1035A0007B681B685A687B681B6842F400625A603B
:1035B00007E07B681B685A687B681B6822F400621E
:1035C0005A607B681B685B687A68126843F0007316
:1035D00043F4004353607B681B68DA687B681B68B0
:1035E00022F40042DA607B681A697B685B6942EA10
:1035F00003017B689B691A027B681B680A43DA60D7
:103600007B68D9697B681A6A7B681B680A431A6001
:103610007B681B681A687B681B6842F001021A60AD
:103620007B6800225A647B68202283F841207B68F3
:1036300000221A637B68002283F842200023184688
:103640000837BD4680BD80B483B000AF7860396074
:103650007B6893F84130DBB2202B38D17B6893F83C
:103660004030012B01D1022332E07B68012283F834
:1036700040207B68242283F841207B681B681A68FD
:103680007B681B6822F001021A607B681B681A685D
:103690007B681B6822F480521A607B681B6819687B
:1036A0007B681B683A680A431A607B681B681A6863
:1036B0007B681B6842F001021A607B68202283F855
:1036C00041207B68002283F84020002300E0022391
:1036D00018460C37BD465DF8047B704780B485B052
:1036E00000AF786039607B6893F84130DBB2202B03
:1036F00039D17B6893F84030012B01D1022333E0AC
:103700007B68012283F840207B68242283F84120D3
:103710007B681B681A687B681B6822F001021A60CC
:103720007B681B681B68FB60FB6823F47063FB60AD
:103730003B681B02FA681343FB607B681B68FA68EE
:103740001A607B681B681A687B681B6842F001027C
:103750001A607B68202283F841207B68002283F86E
:103760004020002300E0022318461437BD465DF8D0
:10377000047B704780B584B000AF78607B68002B15
:1037800001D10123B9E07B6893F89132DBB2002BC1
:1037900006D17B68002283F8902278680AF074F8DA
:1037A0007B68032283F891227B681B68184605F02A
:1037B00036FF0023FB733EE0FA7B796813469B00DB
:1037C0001344DB000B44113301221A70FA7B796831
:1037D00013469B001344DB000B441033FA7B1A7032
:1037E000FA7B796813469B001344DB000B441333C8
:1037F00000221A70FA7B796813469B001344DB00A1
:103800000B44203300221A60FA7B796813469B0030
:103810001344DB000B44243300221A60FB7B7968DD
:103820005A1C13469B001344DB000B4400221A6011
:10383000FB7B0133FB737B681B79FA7B9A42BBD31A
:103840000023FB7344E0FA7B796813469B00134422
:10385000DB000B4403F2511300221A70FA7B7968E3
:1038600013469B001344DB000B4403F5A873FA7B5B
:103870001A70FA7B796813469B001344DB000B44F3
:1038800003F2531300221A70FA7B796813469B00E7
:103890001344DB000B4403F5B07300221A60FA7B7B
:1038A000796813469B001344DB000B4403F5B273A5
:1038B00000221A60FA7B796813469B001344DB00F0
:1038C0000B4403F5B47300221A60FB7B0133FB73D6
:1038D0007B681B79FA7B9A42B5D37B6818687B6852
:1038E000043393E8060005F0B5FE7B6800221A73E6
:1038F0007B68012283F89122002318461037BD46C9
:1039000080BD80B582B000AF78607B6893F890325C
:10391000012B01D1022316E07B68012283F890225B
:103920007B681B68184605F063FE012178680AF081
:1039300047FA7B681B68184608F020F97B6800226C
:1039400083F89022002318460837BD4680BD80B515
:1039500084B000AF78607B681B68184608F019F9DE
:10396000F860FB6803F40043002B03D0786800F094
:10397000B1FABDE0FB6803F48063002B13D07B68D1
:103980001B68B3F844309AB27B681B6822F48062EB
:1039900092B2A3F8442078680AF017F800217868FA
:1039A00000F0A9F8A4E0FB6803F48043002B0CD0DE
:1039B0007B681B68B3F844309AB27B681B6822F4BA
:1039C000804292B2A3F8442092E0FB6803F40053D3
:1039D000002B0CD07B681B68B3F844309AB27B682C
:1039E0001B6822F4005292B2A3F8442080E0FB68E6
:1039F00003F48053002B27D07B681B68B3F840305A
:103A00009AB27B681B6822F0040292B2A3F84020AD
:103A10007B681B68B3F840309AB27B681B6822F061
:103A2000080292B2A3F8402078680AF007F87B6891
:103A30001B68B3F844309AB27B681B6822F480524A
:103A400092B2A3F8442053E0FB6803F40063002B18
:103A500027D07B681B68B3F840309AB27B681B683C
:103A600042F0080292B2A3F840207B681B68B3F8CA
:103A700044309AB27B681B6822F4006292B2A3F8C9
:103A800044207B681B68B3F840309AB27B681B689F
:103A900042F0040292B2A3F84020786809F0B4FF23
:103AA00026E0FB6803F40073002B0FD07B681B68D3
:103AB000B3F844309AB27B681B6822F4007292B269
:103AC000A3F84420786809F072FF11E0FB6803F462
:103AD0008073002B0CD07B681B68B3F844309AB21B
:103AE0007B681B6822F4807292B2A3F8442000BF66
:103AF0001037BD4680BD80B582B000AF78600B4600
:103B0000FB707B6893F89032012B01D1022312E005
:103B10007B68012283F890227B68FA781A737B68AD
:103B20001B68FA781146184608F014F87B680022E2
:103B300083F89022002318460837BD4680BD80B523
:103B400084B000AF7860084611461A460346FB7001
:103B50000B463B801346BB700023FB7297F9033082
:103B6000002B0EDAFB7803F0070213469B00134488
:103B7000DB0010337A681344FB60FB6801225A7043
:103B80000EE0FB7803F0070213469B001344DB00B2
:103B900003F5A8737A681344FB60FB6800225A702F
:103BA000FB7803F00703DAB2FB681A703A88FB6807
:103BB0001A61FB68BA78DA70BB78022B02D1FB6815
:103BC00000221A717B6893F89032012B01D10223F5
:103BD0000EE07B68012283F890227B681B68F968FD
:103BE000184605F055FD7B68002283F89022FB7A89
:103BF00018461037BD4680BD80B584B000AF7860F0
:103C00000B46FB7097F90330002B0EDAFB7803F0BC
:103C1000070213469B001344DB0010337A681344F9
:103C2000FB60FB6801225A700EE0FB7803F007028C
:103C300013469B001344DB0003F5A8737A68134412
:103C4000FB60FB6800225A70FB7803F00703DAB2CE
:103C5000FB681A707B6893F89032012B01D1022324
:103C60000EE07B68012283F890227B681B68F9686C
:103C7000184606F0D1F87B68002283F890220023D2
:103C800018461037BD4680BD80B586B000AFF860DD
:103C90007A603B600B46FB72FB7A03F00702134627
:103CA0009B001344DB0003F5A873FA6813447B619F
:103CB0007B697A685A617B693A689A617B690022FC
:103CC000DA617B6900225A70FB7A03F00703DAB2EB
:103CD0007B691A70FB681B687969184606F089FAD7
:103CE000002318461837BD4680BD80B483B000AFAE
:103CF00078600B46FB70FB7803F007027968134687
:103D00009B001344DB000B4403F5B6731B68184695
:103D10000C37BD465DF8047B704780B586B000AFB8
:103D2000F8607A603B600B46FB72FB7A03F0070297
:103D300013469B001344DB001033FA6813447B6185
:103D40007B697A685A617B693A689A617B6901226A
:103D500083F824207B693A681A627B690022DA6161
:103D60007B6901225A70FB7A03F00703DAB27B69A0
:103D70001A70FB681B687969184606F03AFA002346
:103D800018461837BD4680BD80B584B000AF786056
:103D90000B46FB70FB7803F007037A6812799342B5
:103DA00001D901233EE097F90330002B0EDAFB78AE
:103DB00003F0070213469B001344DB0010337A68BC
:103DC0001344FB60FB6801225A700CE0FA7813463A
:103DD0009B001344DB0003F5A8737A681344FB606F
:103DE000FB6800225A70FB6801229A70FB7803F08E
:103DF0000703DAB2FB681A707B6893F89032012BE4
:103E000001D102230EE07B68012283F890227B68B7
:103E10001B68F968184607F09EFD7B68002283F84E
:103E20009022002318461037BD4680BD80B584B06F
:103E300000AF78600B46FB70FB7803F00F037A68E5
:103E40001279934201D9012340E097F90330002B06
:103E50000EDAFB7803F0070213469B001344DB00E5
:103E600010337A681344FB60FB6801225A700EE03D
:103E7000FB7803F0070213469B001344DB0003F5B5
:103E8000A8737A681344FB60FB6800225A70FB68D1
:103E900000229A70FB7803F00703DAB2FB681A700D
:103EA0007B6893F89032012B01D102230EE07B68EE
:103EB000012283F890227B681B68F968184607F096
:103EC0009BFD7B68002283F8902200231846103760
:103ED000BD4680BD80B596B000AF7860BBE37B681F
:103EE0001B68B3F84430A7F84830B7F84830DBB265
:103EF00003F00F0387F84F3097F84F30002B40F056
:103F00007581B7F8483003F01003002B4ED17B6861
:103F10001B681B889BB223F4E14323F07003FB81F1
:103F20007B681A68FB896FEA43436FEA53439BB28D
:103F300013807B6810337B657B681B68B3F8503057
:103F40009BB21A467B6D1B78DB00134402335B0087
:103F50007A681268134403F580631B88C3F309026F
:103F60007B6DDA617B6D5A697B6DDB691A447B6D11
:103F70005A610021786809F000FD7B681B7BDBB289
:103F8000002B00F068837B6D9B69002B40F06383FE
:103F90007B681B7BDBB263F07F03DAB27B681B6854
:103FA000A3F84C207B6800221A7354E37B6803F566
:103FB000A8737B657B681B681B88A7F84C30B7F833
:103FC0004C3003F40063002B34D07B681B68B3F8DB
:103FD00050309BB21A467B6D1B78DB0013440633CE
:103FE0005B007A681268134403F580631B88C3F38F
:103FF00009027B6DDA617B6818687B6803F52671BE
:104000007B6DDA887B6DDB699BB207F019FE7B68FC
:104010001B681B889AB240F68F7313403B827B6803
:104020001B683A8A42F0800292B21A80786809F0DE
:1040300077FC10E3B7F94C30002B80F20C837B68DF
:104040001B681B889AB240F68F731340FB837B6812
:104050001B68FA8B42F0800292B21A807B681B6860
:10406000B3F850309BB21A467B6D1B78DB001344CB
:1040700006335B007A681268134403F580631B887B
:10408000C3F309027B6DDA617B6DDB69002B19D00C
:104090007B6D5B69002B15D07B6818687B6D596957
:1040A0007B6DDA887B6DDB699BB207F0C9FD7B6DA8
:1040B0005A697B6DDB691A447B6D5A61002178680F
:1040C00009F040FC7B681B681B88A7F84C30B7F8E8
:1040D0004C3003F40063002B40F0BD82B7F84C3045
:1040E00003F44053B3F5405F00F0B5827B681B6872
:1040F000BB617B681B68B3F850309BB21A46BB6942
:104100001344BB61BB6903F20C437B617B691B8871
:104110009BB2C3F309039AB27B691A807B6D1B695A
:10412000002B0AD17B691B889BB26FEA43436FEA7D
:1041300053439AB27B691A8039E07B6D1B693E2B31
:1041400018D87B6D1B695B087B647B6D1B6903F072
:104150000103002B02D07B6C01337B647B691B88DD
:104160009AB27B6C9BB29B029BB213439AB27B695F
:104170001A801CE07B6D1B695B097B647B6D1B698E
:1041800003F01F03002B02D17B6C013B7B647B6936
:104190001B889AB27B6C9BB29B029BB213439BB26F
:1041A0006FEA43436FEA53439AB27B691A807B6894
:1041B0001B681B889BB223F4804323F070037B822F
:1041C0007B8A83F480537B827B8A83F400537B82D7
:1041D0007B681A687B8A43F07F4343F47F0343F490
:1041E000004343F080039BB2138034E27B681B687A
:1041F0001A4697F84F309B0013441B88A7F84C30A1
:10420000B7F94C30002B80F2FC807B681B681A46A3
:1042100097F84F309B0013441B889AB240F68F7377
:104220001340A7F84A307B681B681A4697F84F304E
:104230009B001344B7F84A2042F0800292B21A80E1
:1042400097F84F2013469B001344DB0003F5A87337
:104250007A6813447B657B6D1B7B002B25D17B68C3
:104260001B68B3F850309BB21A467B6D1B78DB009D
:10427000134406335B007A681268134403F58063C5
:104280001B88C3F30903A7F85030B7F85030002B50
:1042900000F092807B6818687B6D59697B6DDA88C5
:1042A000B7F8503007F0CCFC86E07B6DDB78022B52
:1042B0000AD1B7F84C301A46796D786800F0D9F910
:1042C0000346A7F8503077E07B681B681A467B6D81
:1042D0001B789B0013441B889BB223F4E04323F01C
:1042E0007003A7F852307B681B681A467B6D1B78F9
:1042F0009B001A44B7F8523043F07F4343F47F03E6
:1043000043F4004343F0C0039BB213807B681B68F7
:104310001A467B6D1B789B0013441B889BB203F4E9
:104320008043002B24D07B681B68B3F850309BB2CD
:104330001A467B6D1B78DB00134402335B007A68FE
:104340001268134403F580631B88C3F30903A7F8BD
:104350005030B7F85030002B2ED07B6818687B6D3A
:1043600059697B6D1A89B7F8503007F069FC23E072
:104370007B681B68B3F850309BB21A467B6D1B7884
:10438000DB00134406335B007A681268134403F5BC
:1043900080631B88C3F30903A7F85030B7F8503087
:1043A000002B09D07B6818687B6D59697B6D5A8931
:1043B000B7F8503007F044FC7B6DDA69B7F850303D
:1043C0001A447B6DDA617B6D5A69B7F850301A4434
:1043D0007B6D5A617B6D9B69002B05D0B7F850202F
:1043E0007B6D1B699A4206D27B6D1B7819467868F3
:1043F00009F0A8FA05E07B681B68796D184605F09E
:10440000F8FEB7F84C3003F08003002B00F0238156
:1044100097F84F2013469B001344DB0010337A6853
:1044200013447B657B681B681A4697F84F309B00E6
:1044300013441B889BB223F4E14323F07003A7F8D5
:1044400042307B681B681A4697F84F309B001A442D
:10445000B7F842306FEA43436FEA53439BB213808D
:104460007B6DDB78012B40F0A2807B6D00229A618E
:104470007B6D1B7B002B00F09380B7F84C3003F072
:104480004003002B46D07B6D5B78002B26D17B68E8
:104490001B687B627B681B68B3F850309BB21A467E
:1044A0007B6A13447B627B6D1B781A017B6A134421
:1044B00003F204433B623B6A1B889BB2C3F30903CC
:1044C0009AB23B6A1A803B6A1B889BB26FEA4343ED
:1044D0006FEA53439AB23B6A1A8061E07B6D5B7866
:1044E000012B5DD17B681B68FB627B681B68B3F89E
:1044F00050309BB21A46FB6A1344FB627B6D1B78FB
:104500001A01FB6A134403F20443BB62BB6A002234
:104510001A8045E07B681B68FB637B6D5B78002B32
:1045200026D17B681B687B637B681B68B3F85030BF
:104530009BB21A467B6B13447B637B6D1B781A011D
:104540007B6B134403F20C433B633B6B1B889BB2B6
:10455000C3F309039AB23B6B1A803B6B1B889BB277
:104560006FEA43436FEA53439AB23B6B1A8017E0FA
:104570007B6D5B78012B13D17B681B68B3F85030DF
:104580009BB21A46FB6B1344FB637B6D1B781A01CD
:10459000FB6B134403F20C43BB63BB6B00221A801A
:1045A0007B6D1B781946786809F0E7F953E0B7F896
:1045B0004C3003F48073002B46D17B681B68B3F842
:1045C00050309BB21A467B6D1B78DB0013440233DC
:1045D0005B007A681268134403F580631B88C3F399
:1045E0000903A7F840307B6D9A69B7F840309A42CA
:1045F00007D97B6D9A69B7F84030D21A7B6D9A6102
:1046000002E07B6D00229A617B6D9B69002B06D1D5
:104610007B6D1B781946786809F0AFF91BE07B6D5C
:104620005A69B7F840301A447B6D5A617B6DDA697C
:10463000B7F840301A447B6DDA617B681B68796D8E
:10464000184605F0D6FD06E0B7F84C301A46796DED
:10465000786800F01BF97B681B68B3F844309BB2A4
:104660001BB2002BFFF63BAC002318465837BD4663
:1046700080BD80B588B000AFF860B9601346FB809C
:10468000FB8803F48043002B7ED0FB681B68B3F8E3
:1046900050309BB21A46BB681B78DB0013440233D0
:1046A0005B00FA681268134403F580631B88C3F348
:1046B00009037B83BB689A697B8B9A4206D3BB68EC
:1046C0009A697B8BD21ABB689A6102E0BB680022B0
:1046D0009A61BB689B69002B23D1FB681B681A4653
:1046E000BB681B789B0013441B889BB223F4804358
:1046F00023F070033B833B8B83F400533B83FB68C5
:104700001B681A46BB681B789B001A443B8B43F01E
:104710007F4343F47F0343F4004343F080039BB2A1
:104720001380FB8803F04003002B1FD0FB681B683D
:104730001A46BB681B789B0013441B889BB223F46A
:10474000E04323F07003FB82FB681B681A46BB68DA
:104750001B789B001A44FB8A43F07F4343F47F039A
:1047600043F4004343F0C0039BB213807B8B002BC8
:1047700000F08780FB681868BB685969BB681A89B4
:104780007B8B07F05DFA7CE0FB681B68B3F8503068
:104790009BB21A46BB681B78DB00134406335B00F0
:1047A000FA681268134403F580631B88C3F3090396
:1047B0007B83BB689A697B8B9A4206D3BB689A69F4
:1047C0007B8BD21ABB689A6102E0BB6800229A61B7
:1047D000BB689B69002B23D1FB681B681A46BB682A
:1047E0001B789B0013441B889BB223F4804323F067
:1047F0007003FB83FB8B83F40053FB83FB681B6814
:104800001A46BB681B789B001A44FB8B43F07F431E
:1048100043F47F0343F4004343F080039BB21380CF
:10482000FB8803F04003002B1FD1FB681B681A466E
:10483000BB681B789B0013441B889BB223F4E043A6
:1048400023F07003BB83FB681B681A46BB681B78A8
:104850009B001A44BB8B43F07F4343F47F0343F434
:10486000004343F0C0039BB213807B8B002B08D026
:10487000FB681868BB685969BB685A897B8B07F06D
:10488000DFF97B8B18462037BD4680BD80B5A4B0CC
:1048900000AFF860B9601346FB80FB8803F040036B
:1048A000002B00F0DD81FB681B68B3F850309BB231
:1048B0001A46BB681B78DB00134402335B00FA68BE
:1048C0001268134403F580631B88C3F30903A7F838
:1048D0008830BB689A69B7F888309A4207D9BB68B4
:1048E0009A69B7F88830D21ABB689A6102E0BB684F
:1048F00000229A61BB689B69002B40F0B980BB68BD
:104900005B78002B26D1FB681B68FB62FB681B6889
:10491000B3F850309BB21A46FB6A1344FB62BB6883
:104920001B781A01FB6A134403F20443BB62BB6A9F
:104930001B889BB2C3F309039AB2BB6A1A80BB6A95
:104940001B889BB26FEA43436FEA53439AB2BB6A38
:104950001A801AE0BB685B78012B16D1FB681B68D4
:104960007B63FB681B68B3F850309BB21A467B6BC5
:1049700013447B63BB681B781A017B6B134403F2FF
:1049800004433B633B6B00221A80FB681B687B621D
:10499000BB685B78002B26D1FB681B68FB61FB685A
:1049A0001B68B3F850309BB21A46FB691344FB6195
:1049B000BB681B781A01FB69134403F20C43BB610B
:1049C000BB691B889BB2C3F309039AB2BB691A8007
:1049D000BB691B889BB26FEA43436FEA53439AB2A9
:1049E000BB691A8017E0BB685B78012B13D1FB68A9
:1049F0001B68B3F850309BB21A467B6A13447B6243
:104A0000BB681B781A017B6A134403F20C433B62B8
:104A10003B6A00221A80BB681B781946F86808F0C8
:104A2000ACFFFB8803F48043002B00F0FC82FB68A2
:104A30001B681A46BB681B789B0013441B889BB2FB
:104A400023F4E04323F07003FB82FB681B681A46E3
:104A5000BB681B789B001A44FB8A43F07F4343F4F6
:104A60007F0343F4404343F080039BB21380DAE2B8
:104A7000FB8803F48043002B21D0FB681B681A4697
:104A8000BB681B789B0013441B889BB223F4E04354
:104A900023F07003A7F88A30FB681B681A46BB68CE
:104AA0001B789B001A44B7F88A3043F07F4343F4E5
:104AB0007F0343F4404343F080039BB21380BB6801
:104AC00093F82430012B40F0AE82BB685A69B7F8E6
:104AD00088301A44BB685A61BB68DA69B7F8883015
:104AE0001A44BB68DA61BB681A6ABB681B699A42E0
:104AF0000BD3BB681B69C7F88C30BB681A6AD7F840
:104B00008C30D21ABB681A6217E0BB681B6A002B94
:104B100008D1B7F88830C7F88C30BB68002283F81A
:104B200024200AE0BB68002283F82420BB681B6AAB
:104B3000C7F88C30BB6800221A62BB685B78002B18
:104B400065D1FB681B68FB63FB681B68B3F85030DA
:104B50009BB21A46FB6B1344FB63BB681B781A01BC
:104B6000FB6B134403F20443BB63BB6B1B889BB218
:104B7000C3F309039AB2BB6B1A80D7F88C30002BB1
:104B80000AD1BB6B1B889BB26FEA43436FEA534366
:104B90009AB2BB6B1A8057E0D7F88C303E2B18D8EE
:104BA000D7F88C305B08BB64D7F88C3003F0010376
:104BB000002B02D0BB6C0133BB64BB6B1B889AB269
:104BC000BB6C9BB29B029BB213439AB2BB6B1A8025
:104BD0003AE0D7F88C305B09BB64D7F88C3003F02F
:104BE0001F03002B02D1BB6C013BBB64BB6B1B885A
:104BF0009AB2BB6C9BB29B029BB213439BB26FEA0F
:104C000043436FEA53439AB2BB6B1A801CE0BB6804
:104C10005B78012B18D1FB681B687B64FB681B6801
:104C2000B3F850309BB21A467B6C13447B64BB686C
:104C30001B781A017B6C134403F204433B64D7F8DE
:104C40008C309AB23B6C1A80FB681868BB68596953
:104C5000BB681A89D7F88C309BB206F0AAFFE2E154
:104C6000FB681B68B3F850309BB21A46BB681B78D0
:104C7000DB00134406335B00FA681268134403F543
:104C800080631B88C3F30903A7F88830BB689A695F
:104C9000B7F888309A4207D3BB689A69B7F888306A
:104CA000D21ABB689A6102E0BB6800229A61BB68B5
:104CB0009B69002B40F0C080BB685B78002B26D13D
:104CC000FB681B68FB67FB681B68B3F850309BB23E
:104CD0001A46FB6F1344FB67BB681B781A01FB6F16
:104CE000134403F20443BB67BB6F1B889BB2C3F33F
:104CF00009039AB2BB6F1A80BB6F1B889BB26FEA25
:104D000043436FEA53439AB2BB6F1A801AE0BB6801
:104D10005B78012B16D1FB681B687B66FB681B6800
:104D2000B3F850309BB21A467B6E13447B66BB6867
:104D30001B781A017B6E134403F204433B663B6EFF
:104D400000221A80FB681B687B67BB685B78002BBE
:104D50002BD1FB681B68FB66FB681B68B3F85030FF
:104D60009BB21A46FB6E1344FB66BB681B781A01A4
:104D7000FB6E134403F20C43C7F88430D7F8843039
:104D80001B889BB2C3F309039AB2D7F884301A8008
:104D9000D7F884301B889BB26FEA43436FEA5343D2
:104DA0009AB2D7F884301A8017E0BB685B78012B81
:104DB00013D1FB681B68B3F850309BB21A467B6F67
:104DC00013447B67BB681B781A017B6F134403F2A3
:104DD0000C433B673B6F00221A80BB681B78194667
:104DE000F86808F0CAFDFB8803F48043002B40F00C
:104DF0001A81FB681B681A46BB681B789B0013442A
:104E00001B889BB223F4E04323F07003A7F88230A1
:104E1000FB681B681A46BB681B789B001A44B7F8EE
:104E2000823043F07F4343F47F0343F4404343F035
:104E300080039BB21380F6E0FB8803F48043002BD1
:104E400021D1FB681B681A46BB681B789B00134482
:104E50001B889BB223F4E04323F07003A7F84E3085
:104E6000FB681B681A46BB681B789B001A44B7F89E
:104E70004E3043F07F4343F47F0343F4404343F019
:104E800080039BB21380BB6893F82430012B40F061
:104E9000CA80BB685A69B7F888301A44BB685A613F
:104EA000BB68DA69B7F888301A44BB68DA61BB6856
:104EB0001A6ABB681B699A420BD3BB681B69C7F8A7
:104EC0008C30BB681A6AD7F88C30D21ABB681A6269
:104ED00017E0BB681B6A002B08D1B7F88830C7F809
:104EE0008C30BB68002283F824200AE0BB681B6A70
:104EF000C7F88C30BB6800221A62BB68002283F8B6
:104F00002420FB681B687B65BB685B78002B65D140
:104F1000FB681B68FB65FB681B68B3F850309BB2ED
:104F20001A46FB6D1344FB65BB681B781A01FB6DC9
:104F3000134403F20C43BB65BB6D1B889BB2C3F3E8
:104F400009039AB2BB6D1A80D7F88C30002B0AD1B6
:104F5000BB6D1B889BB26FEA43436FEA53439AB21F
:104F6000BB6D1A8054E0D7F88C303E2B18D8D7F898
:104F70008C305B08BB66D7F88C3003F00103002B44
:104F800002D0BB6E0133BB66BB6D1B889AB2BB6E91
:104F90009BB29B029BB213439AB2BB6D1A8037E05F
:104FA000D7F88C305B09BB66D7F88C3003F01F0351
:104FB000002B02D1BB6E013BBB66BB6D1B889AB256
:104FC000BB6E9BB29B029BB213439BB26FEA4343FF
:104FD0006FEA53439AB2BB6D1A8019E0BB685B78E5
:104FE000012B15D1FB681B68B3F850309BB21A46F1
:104FF0007B6D13447B65BB681B781A017B6D134482
:1050000003F20C433B65D7F88C309AB23B6D1A80A3
:10501000FB681868BB685969BB685A89D7F88C3037
:105020009BB206F0C6FDFB681B681A46BB681B787E
:105030009B0013441B889BB223F4E04323F04003FE
:10504000BB82BB8A83F01003BB82BB8A83F0200340
:10505000BB82FB681B681A46BB681B789B001A441E
:10506000BB8A43F07F4343F47F0343F4004343F0A0
:1050700080039BB21380002318469037BD4680BD45
:1050800080B487B000AFF8607B600B467B8113462D
:105090003B817B8903F080039BB2002B0BD07B8983
:1050A00003F0070213469B001344DB001033FA6839
:1050B00013447B6109E07A8913469B001344DB00AB
:1050C00003F5A873FA6813447B613B89002B07D171
:1050D0007B6900221A737B689AB27B69DA800BE0E5
:1050E0007B6901221A737B689AB27B691A817B689B
:1050F0001B0C9AB27B695A81002318461C37BD46A7
:105100005DF8047B7047000080B5ADF5007D00AF11
:1051100007F50073A3F5FE73186007F50073A3F598
:10512000FE731B68002B02D1012300F0F4BF07F5CA
:105130000073A3F5FE731B681B6803F00103002BCB
:1051400000F06D81B44B5B6803F00C03042B0CD0B2
:10515000B14B5B6803F00C03082B57D1AE4B5B6877
:1051600003F48033B3F5803F50D14FF40033C7F8D8
:10517000F031D7F8F03193FAA3F3C7F8EC31D7F850
:10518000EC31B3FA83F3DBB23F2B02D8A24B1B689E
:1051900015E04FF40033C7F8E831D7F8E83193FA57
:1051A000A3F3C7F8E4314FF40033C7F8E031D7F880
:1051B000E03193FAA3F3C7F8DC31974B5B6A4FF405
:1051C0000032C7F8D821D7F8D82192FAA2F2C7F84E
:1051D000D421D7F8D421B2FA82F2D2B242F020021E
:1051E000D2B202F01F02012101FA02F21340002B99
:1051F00000F0148107F50073A3F5FE731B685B686C
:10520000002B40F00B81012300F085BF07F50073F0
:10521000A3F5FE731B685B68B3F5803F06D17E4B38
:105220001B687D4A43F48033136036E007F5007352
:10523000A3F5FE731B685B68002B0CD1764B1B68D3
:10524000754A23F480331360734B1B68724A23F44E
:105250008023136021E007F50073A3F5FE731B683C
:105260005B68B3F5A02F0CD16B4B1B686A4A43F403
:1052700080231360684B1B68674A43F480331360D4
:105280000BE0654B1B68644A23F480331360624B68
:105290001B68614A23F4802313605F4BDB6A23F0B1
:1052A0000F0207F50073A3F5FE731B689B685A494C
:1052B0001343CB6207F50073A3F5FE731B685B68AD
:1052C000002B54D0FDF7A2FDC7F8F8010AE0FDF766
:1052D0009DFD0246D7F8F831D31A642B02D9032377
:1052E00000F019BF4FF40033C7F8D031D7F8D031F0
:1052F00093FAA3F3C7F8CC31D7F8CC31B3FA83F3E0
:10530000DBB23F2B02D8444B1B6815E04FF400334F
:10531000C7F8C831D7F8C83193FAA3F3C7F8C43136
:105320004FF40033C7F8C031D7F8C03193FAA3F374
:10533000C7F8BC31384B5B6A4FF40032C7F8B8216C
:10534000D7F8B82192FAA2F2C7F8B421D7F8B4215D
:10535000B2FA82F2D2B242F02002D2B202F01F02BE
:10536000012101FA02F21340002BB0D057E0FDF703
:105370004DFDC7F8F8010AE0FDF748FD0246D7F8F1
:10538000F831D31A642B02D9032300F0C4BE4FF4C2
:105390000033C7F8B031D7F8B03193FAA3F3C7F8A8
:1053A000AC31D7F8AC31B3FA83F3DBB23F2B02D880
:1053B000194B1B6815E04FF40033C7F8A831D7F834
:1053C000A83193FAA3F3C7F8A4314FF40033C7F818
:1053D000A031D7F8A03193FAA3F3C7F89C310E4B54
:1053E0005B6A4FF40032C7F89821D7F8982192FAF7
:1053F000A2F2C7F89421D7F89421B2FA82F2D2B27D
:1054000042F02002D2B202F01F02012101FA02F2A0
:105410001340002BB0D102E00010024000BF07F59E
:105420000073A3F5FE731B681B6803F00203002BD7
:1054300000F06C81CC4B5B6803F00C03002B0BD0AD
:10544000C94B5B6803F00C03082B6DD1C64B5B683E
:1054500003F48033002B67D10223C7F89031D7F8CB
:10546000903193FAA3F3C7F88C31D7F88C31B3FAA3
:1054700083F3DBB23F2B02D8BB4B1B6813E0022344
:10548000C7F88831D7F8883193FAA3F3C7F8843185
:105490000223C7F88031D7F8803193FAA3F3C7F815
:1054A0007C31B14B5B6A0222C7F87821D7F87821AA
:1054B00092FAA2F2C7F87421D7F87421B2FA82F2F4
:1054C000D2B242F02002D2B202F01F02012101FA50
:1054D00002F21340002B0AD007F50073A3F5FE7308
:1054E0001B681B69012B02D0012300F014BE9E4BE8
:1054F0001B6823F0F80207F50073A3F5FE731B6821
:105500005B69F821C7F87011D7F8701191FAA1F111
:10551000C7F86C11D7F86C11B1FA81F1C9B28B40A0
:10552000914913430B60F1E007F50073A3F5FE7397
:105530001B681B69002B00F083800123C7F86831CA
:10554000D7F8683193FAA3F3C7F86431D7F8643118
:10555000B3FA83F3DBB203F1845303F584139B00A6
:105560001A4601231360FDF751FCC7F8F8010AE061
:10557000FDF74CFC0246D7F8F831D31A022B02D9BA
:10558000032300F0C8BD0223C7F86031D7F86031AB
:1055900093FAA3F3C7F85C31D7F85C31B3FA83F31D
:1055A000DBB23F2B02D8704B1B6813E00223C7F815
:1055B0005831D7F8583193FAA3F3C7F8543102237E
:1055C000C7F85031D7F8503193FAA3F3C7F84C31EC
:1055D000654B5B6A0222C7F84821D7F8482192FA46
:1055E000A2F2C7F84421D7F84421B2FA82F2D2B22B
:1055F00042F02002D2B202F01F02012101FA02F2AF
:105600001340002BB4D0584B1B6823F0F80207F569
:105610000073A3F5FE731B685B69F821C7F840119E
:10562000D7F8401191FAA1F1C7F83C11D7F83C1115
:10563000B1FA81F1C9B28B404B4913430B6065E06D
:105640000123C7F83831D7F8383193FAA3F3C7F8F4
:105650003431D7F83431B3FA83F3DBB203F1845336
:1056600003F584139B001A4600231360FDF7CEFB5D
:10567000C7F8F8010AE0FDF7C9FB0246D7F8F83190
:10568000D31A022B02D9032300F045BD0223C7F829
:105690003031D7F8303193FAA3F3C7F82C31D7F86B
:1056A0002C31B3FA83F3DBB23F2B02D82E4B1B68AD
:1056B00013E00223C7F82831D7F8283193FAA3F36F
:1056C000C7F824310223C7F82031D7F8203193FAE4
:1056D000A3F3C7F81C31244B5B6A0222C7F81821D8
:1056E000D7F8182192FAA2F2C7F81421D7F814219A
:1056F000B2FA82F2D2B242F02002D2B202F01F021B
:10570000012101FA02F21340002BB4D107F5007316
:10571000A3F5FE731B681B6803F00803002B00F061
:10572000158107F50073A3F5FE731B689B69002BB9
:105730007ED00123C7F81031D7F8103193FAA3F3C4
:10574000C7F80C31D7F80C31B3FA83F3DBB21A4641
:10575000064B13449B001A4601231360FDF756FBCA
:10576000C7F8F8010FE000BF001002402081901040
:10577000FDF74CFB0246D7F8F831D31A022B02D9B9
:10578000032300F0C8BC0223C7F80831D7F808315A
:1057900093FAA3F3C7F8043107F50073A3F58073F8
:1057A00002221A6007F50073A3F580731B6893FA51
:1057B000A3F207F50073A3F582731A6007F500736F
:1057C000A3F5847302221A6007F50073A3F58473AE
:1057D0001B6893FAA3F207F50073A3F586731A60AA
:1057E000B04B5A6A07F50073A3F58873022119605C
:1057F00007F50073A3F588731B6893FAA3F107F507
:105800000073A3F58A73196007F50073A3F58A7313
:105810001B68B3FA83F3DBB243F06003DBB203F03F
:105820001F03012101FA03F31340002BA0D08DE0E8
:1058300007F50073A3F58C7301221A6007F5007356
:10584000A3F58C731B6893FAA3F207F50073A3F515
:105850008E731A6007F50073A3F58E731B68B3FA95
:1058600083F3DBB21A46904B13449B001A46002385
:105870001360FDF7CBFAC7F8F8010AE0FDF7C6FAA6
:105880000246D7F8F831D31A022B02D9032300F0CD
:1058900042BC07F50073A3F5907302221A6007F566
:1058A0000073A3F590731B6893FAA3F207F50073D6
:1058B000A3F592731A6007F50073A3F5947302229F
:1058C0001A6007F50073A3F594731B6893FAA3F2AB
:1058D00007F50073A3F596731A6007F50073A3F537
:1058E000987302221A6007F50073A3F598731B687A
:1058F00093FAA3F207F50073A3F59A731A60694B44
:105900005A6A07F50073A3F59C730221196007F525
:105910000073A3F59C731B6893FAA3F107F500735A
:10592000A3F59E73196007F50073A3F59E731B68BA
:10593000B3FA83F3DBB243F06003DBB203F01F037F
:10594000012101FA03F31340002B97D107F50073EF
:10595000A3F5FE731B681B6803F00403002B00F023
:105960009E81002387F8FF314E4BDB6903F08053A3
:10597000002B16D14B4BDB694A4A43F08053D3616D
:10598000484BDB6903F0805207F50073A3F5FC7305
:105990001A6007F50073A3F5FC731B68012387F8F1
:1059A000FF31424B1B6803F48073002B1AD13F4B2D
:1059B0001B683E4A43F480731360FDF727FAC7F86B
:1059C000F80109E0FDF722FA0246D7F8F831D31AB8
:1059D000642B01D903239EE3344B1B6803F48073CB
:1059E000002BEFD007F50073A3F5FE731B68DB688F
:1059F000012B06D12B4B1B6A2A4A43F00103136289
:105A000035E007F50073A3F5FE731B68DB68002B18
:105A10000CD1244B1B6A234A23F001031362214B50
:105A20001B6A204A23F00403136220E007F5007389
:105A3000A3F5FE731B68DB68052B0CD1194B1B6AA1
:105A4000184A43F004031362164B1B6A154A43F0CD
:105A5000010313620BE0134B1B6A124A23F001038C
:105A60001362104B1B6A0F4A23F00403136207F5FD
:105A70000073A3F5FE731B68DB68002B00F08780C2
:105A8000FDF7C4F9C7F8F80112E0FDF7BFF90246C7
:105A9000D7F8F831D31A41F28832934208D9032358
:105AA00039E300BF001002402081901000700040D8
:105AB00007F50073A3F5A07302221A6007F50073BF
:105AC000A3F5A0731B6893FAA3F207F50073A3F57F
:105AD000A2731A6007F50073A3F5A47302221A607B
